{
	"contracts/CreditMe.sol": {
		"CreditMe": {
			"abi": [
				{
					"inputs": [],
					"stateMutability": "nonpayable",
					"type": "constructor"
				},
				{
					"inputs": [],
					"name": "FundMe",
					"outputs": [],
					"stateMutability": "payable",
					"type": "function"
				},
				{
					"inputs": [],
					"name": "MINIMUM_USD",
					"outputs": [
						{
							"internalType": "uint256",
							"name": "",
							"type": "uint256"
						}
					],
					"stateMutability": "view",
					"type": "function"
				},
				{
					"inputs": [
						{
							"internalType": "address",
							"name": "",
							"type": "address"
						}
					],
					"name": "amountToNumber",
					"outputs": [
						{
							"internalType": "uint256",
							"name": "",
							"type": "uint256"
						}
					],
					"stateMutability": "view",
					"type": "function"
				},
				{
					"inputs": [
						{
							"internalType": "uint256",
							"name": "",
							"type": "uint256"
						}
					],
					"name": "funders",
					"outputs": [
						{
							"internalType": "address",
							"name": "",
							"type": "address"
						}
					],
					"stateMutability": "view",
					"type": "function"
				},
				{
					"inputs": [],
					"name": "i_owner",
					"outputs": [
						{
							"internalType": "address",
							"name": "",
							"type": "address"
						}
					],
					"stateMutability": "view",
					"type": "function"
				},
				{
					"inputs": [],
					"name": "withdraw",
					"outputs": [],
					"stateMutability": "nonpayable",
					"type": "function"
				}
			],
			"devdoc": {
				"kind": "dev",
				"methods": {},
				"version": 1
			},
			"evm": {
				"assembly": "    /* \"contracts/CreditMe.sol\":176:1314  contract CreditMe {... */\n  mstore(0x40, 0xa0)\n    /* \"contracts/CreditMe.sol\":412:456  constructor() {... */\n  callvalue\n  dup1\n  iszero\n  tag_1\n  jumpi\n  0x00\n  dup1\n  revert\ntag_1:\n  pop\n    /* \"contracts/CreditMe.sol\":441:451  msg.sender */\n  caller\n    /* \"contracts/CreditMe.sol\":431:451  i_owner = msg.sender */\n  0xffffffffffffffffffffffffffffffffffffffff\n  and\n  0x80\n  dup2\n  0xffffffffffffffffffffffffffffffffffffffff\n  and\n  dup2\n  mstore\n  pop\n  pop\n    /* \"contracts/CreditMe.sol\":176:1314  contract CreditMe {... */\n  mload(0x80)\n  codecopy(0x00, dataOffset(sub_0), dataSize(sub_0))\n  0x00\n  assignImmutable(\"0x6b3e710f3089a74ecb6b0f5948e5ff07a3db6ba4da475d2be17624ba96b95b\")\n  return(0x00, dataSize(sub_0))\nstop\n\nsub_0: assembly {\n        /* \"contracts/CreditMe.sol\":176:1314  contract CreditMe {... */\n      mstore(0x40, 0x80)\n      jumpi(tag_1, lt(calldatasize, 0x04))\n      shr(0xe0, calldataload(0x00))\n      dup1\n      0x3ccfd60b\n      eq\n      tag_2\n      jumpi\n      dup1\n      0x43626dcc\n      eq\n      tag_3\n      jumpi\n      dup1\n      0x6b69a592\n      eq\n      tag_4\n      jumpi\n      dup1\n      0xdb8e1e62\n      eq\n      tag_5\n      jumpi\n      dup1\n      0xdba6335f\n      eq\n      tag_6\n      jumpi\n      dup1\n      0xdc0d3dff\n      eq\n      tag_7\n      jumpi\n    tag_1:\n      0x00\n      dup1\n      revert\n        /* \"contracts/CreditMe.sol\":691:1230  function withdraw()public onlyOwner{... */\n    tag_2:\n      callvalue\n      dup1\n      iszero\n      tag_8\n      jumpi\n      0x00\n      dup1\n      revert\n    tag_8:\n      pop\n      tag_9\n      tag_10\n      jump\t// in\n    tag_9:\n      stop\n        /* \"contracts/CreditMe.sol\":462:686  function FundMe() public payable {... */\n    tag_3:\n      tag_11\n      tag_12\n      jump\t// in\n    tag_11:\n      stop\n        /* \"contracts/CreditMe.sol\":275:322  uint256 public constant MINIMUM_USD = 50 * 1e18 */\n    tag_4:\n      callvalue\n      dup1\n      iszero\n      tag_13\n      jumpi\n      0x00\n      dup1\n      revert\n    tag_13:\n      pop\n      tag_14\n      tag_15\n      jump\t// in\n    tag_14:\n      mload(0x40)\n      tag_16\n      swap2\n      swap1\n      tag_17\n      jump\t// in\n    tag_16:\n      mload(0x40)\n      dup1\n      swap2\n      sub\n      swap1\n      return\n        /* \"contracts/CreditMe.sol\":356:406  mapping (address => uint256) public amountToNumber */\n    tag_5:\n      callvalue\n      dup1\n      iszero\n      tag_18\n      jumpi\n      0x00\n      dup1\n      revert\n    tag_18:\n      pop\n      tag_19\n      0x04\n      dup1\n      calldatasize\n      sub\n      dup2\n      add\n      swap1\n      tag_20\n      swap2\n      swap1\n      tag_21\n      jump\t// in\n    tag_20:\n      tag_22\n      jump\t// in\n    tag_19:\n      mload(0x40)\n      tag_23\n      swap2\n      swap1\n      tag_17\n      jump\t// in\n    tag_23:\n      mload(0x40)\n      dup1\n      swap2\n      sub\n      swap1\n      return\n        /* \"contracts/CreditMe.sol\":238:270  address public immutable i_owner */\n    tag_6:\n      callvalue\n      dup1\n      iszero\n      tag_24\n      jumpi\n      0x00\n      dup1\n      revert\n    tag_24:\n      pop\n      tag_25\n      tag_26\n      jump\t// in\n    tag_25:\n      mload(0x40)\n      tag_27\n      swap2\n      swap1\n      tag_28\n      jump\t// in\n    tag_27:\n      mload(0x40)\n      dup1\n      swap2\n      sub\n      swap1\n      return\n        /* \"contracts/CreditMe.sol\":327:351  address[] public funders */\n    tag_7:\n      callvalue\n      dup1\n      iszero\n      tag_29\n      jumpi\n      0x00\n      dup1\n      revert\n    tag_29:\n      pop\n      tag_30\n      0x04\n      dup1\n      calldatasize\n      sub\n      dup2\n      add\n      swap1\n      tag_31\n      swap2\n      swap1\n      tag_32\n      jump\t// in\n    tag_31:\n      tag_33\n      jump\t// in\n    tag_30:\n      mload(0x40)\n      tag_34\n      swap2\n      swap1\n      tag_28\n      jump\t// in\n    tag_34:\n      mload(0x40)\n      dup1\n      swap2\n      sub\n      swap1\n      return\n        /* \"contracts/CreditMe.sol\":691:1230  function withdraw()public onlyOwner{... */\n    tag_10:\n        /* \"contracts/CreditMe.sol\":1277:1284  i_owner */\n      immutable(\"0x6b3e710f3089a74ecb6b0f5948e5ff07a3db6ba4da475d2be17624ba96b95b\")\n        /* \"contracts/CreditMe.sol\":1265:1284  msg.sender==i_owner */\n      0xffffffffffffffffffffffffffffffffffffffff\n      and\n        /* \"contracts/CreditMe.sol\":1265:1275  msg.sender */\n      caller\n        /* \"contracts/CreditMe.sol\":1265:1284  msg.sender==i_owner */\n      0xffffffffffffffffffffffffffffffffffffffff\n      and\n      eq\n        /* \"contracts/CreditMe.sol\":1256:1298  require (msg.sender==i_owner, \"not owner\") */\n      tag_36\n      jumpi\n      mload(0x40)\n      0x08c379a000000000000000000000000000000000000000000000000000000000\n      dup2\n      mstore\n      0x04\n      add\n      tag_37\n      swap1\n      tag_38\n      jump\t// in\n    tag_37:\n      mload(0x40)\n      dup1\n      swap2\n      sub\n      swap1\n      revert\n    tag_36:\n        /* \"contracts/CreditMe.sol\":737:756  uint256 funderIndex */\n      0x00\n        /* \"contracts/CreditMe.sol\":733:883  for(uint256 funderIndex; funderIndex<funders.length; funderIndex++){... */\n    tag_40:\n        /* \"contracts/CreditMe.sol\":770:777  funders */\n      0x00\n        /* \"contracts/CreditMe.sol\":770:784  funders.length */\n      dup1\n      sload\n      swap1\n      pop\n        /* \"contracts/CreditMe.sol\":758:769  funderIndex */\n      dup2\n        /* \"contracts/CreditMe.sol\":758:784  funderIndex<funders.length */\n      lt\n        /* \"contracts/CreditMe.sol\":733:883  for(uint256 funderIndex; funderIndex<funders.length; funderIndex++){... */\n      iszero\n      tag_41\n      jumpi\n        /* \"contracts/CreditMe.sol\":807:821  address funder */\n      0x00\n        /* \"contracts/CreditMe.sol\":824:831  funders */\n      dup1\n        /* \"contracts/CreditMe.sol\":832:843  funderIndex */\n      dup3\n        /* \"contracts/CreditMe.sol\":824:844  funders[funderIndex] */\n      dup2\n      sload\n      dup2\n      lt\n      tag_43\n      jumpi\n      tag_44\n      tag_45\n      jump\t// in\n    tag_44:\n    tag_43:\n      swap1\n      0x00\n      mstore\n      keccak256(0x00, 0x20)\n      add\n      0x00\n      swap1\n      sload\n      swap1\n      0x0100\n      exp\n      swap1\n      div\n      0xffffffffffffffffffffffffffffffffffffffff\n      and\n        /* \"contracts/CreditMe.sol\":807:844  address funder = funders[funderIndex] */\n      swap1\n      pop\n        /* \"contracts/CreditMe.sol\":876:877  0 */\n      0x00\n        /* \"contracts/CreditMe.sol\":851:865  amountToNumber */\n      0x01\n        /* \"contracts/CreditMe.sol\":851:873  amountToNumber[funder] */\n      0x00\n        /* \"contracts/CreditMe.sol\":866:872  funder */\n      dup4\n        /* \"contracts/CreditMe.sol\":851:873  amountToNumber[funder] */\n      0xffffffffffffffffffffffffffffffffffffffff\n      and\n      0xffffffffffffffffffffffffffffffffffffffff\n      and\n      dup2\n      mstore\n      0x20\n      add\n      swap1\n      dup2\n      mstore\n      0x20\n      add\n      0x00\n      keccak256\n        /* \"contracts/CreditMe.sol\":851:877  amountToNumber[funder] = 0 */\n      dup2\n      swap1\n      sstore\n      pop\n        /* \"contracts/CreditMe.sol\":800:883  {... */\n      pop\n        /* \"contracts/CreditMe.sol\":786:799  funderIndex++ */\n      dup1\n      dup1\n      tag_47\n      swap1\n      tag_48\n      jump\t// in\n    tag_47:\n      swap2\n      pop\n      pop\n        /* \"contracts/CreditMe.sol\":733:883  for(uint256 funderIndex; funderIndex<funders.length; funderIndex++){... */\n      jump(tag_40)\n    tag_41:\n      pop\n        /* \"contracts/CreditMe.sol\":913:914  0 */\n      0x00\n        /* \"contracts/CreditMe.sol\":899:915  new address[](0) */\n      0xffffffffffffffff\n      dup2\n      gt\n      iszero\n      tag_49\n      jumpi\n      tag_50\n      tag_51\n      jump\t// in\n    tag_50:\n    tag_49:\n      mload(0x40)\n      swap1\n      dup1\n      dup3\n      mstore\n      dup1\n      0x20\n      mul\n      0x20\n      add\n      dup3\n      add\n      0x40\n      mstore\n      dup1\n      iszero\n      tag_52\n      jumpi\n      dup2\n      0x20\n      add\n      0x20\n      dup3\n      mul\n      dup1\n      calldatasize\n      dup4\n      calldatacopy\n      dup1\n      dup3\n      add\n      swap2\n      pop\n      pop\n      swap1\n      pop\n    tag_52:\n      pop\n        /* \"contracts/CreditMe.sol\":889:896  funders */\n      0x00\n        /* \"contracts/CreditMe.sol\":889:915  funders = new address[](0) */\n      swap1\n      dup1\n      mload\n      swap1\n      0x20\n      add\n      swap1\n      tag_53\n      swap3\n      swap2\n      swap1\n      tag_54\n      jump\t// in\n    tag_53:\n      pop\n        /* \"contracts/CreditMe.sol\":942:952  msg.sender */\n      caller\n        /* \"contracts/CreditMe.sol\":934:962  payable(msg.sender).transfer */\n      0xffffffffffffffffffffffffffffffffffffffff\n      and\n        /* \"contracts/CreditMe.sol\":934:985  payable(msg.sender).transfer(address(this).balance) */\n      0x08fc\n        /* \"contracts/CreditMe.sol\":963:984  address(this).balance */\n      selfbalance\n        /* \"contracts/CreditMe.sol\":934:985  payable(msg.sender).transfer(address(this).balance) */\n      swap1\n      dup2\n      iszero\n      mul\n      swap1\n      mload(0x40)\n      0x00\n      mload(0x40)\n      dup1\n      dup4\n      sub\n      dup2\n      dup6\n      dup9\n      dup9\n      call\n      swap4\n      pop\n      pop\n      pop\n      pop\n      iszero\n      dup1\n      iszero\n      tag_56\n      jumpi\n      returndatasize\n      0x00\n      dup1\n      returndatacopy\n      revert(0x00, returndatasize)\n    tag_56:\n      pop\n        /* \"contracts/CreditMe.sol\":1000:1012  bool success */\n      0x00\n        /* \"contracts/CreditMe.sol\":1023:1033  msg.sender */\n      caller\n        /* \"contracts/CreditMe.sol\":1015:1039  payable(msg.sender).send */\n      0xffffffffffffffffffffffffffffffffffffffff\n      and\n        /* \"contracts/CreditMe.sol\":1015:1062  payable(msg.sender).send(address(this).balance) */\n      0x08fc\n        /* \"contracts/CreditMe.sol\":1040:1061  address(this).balance */\n      selfbalance\n        /* \"contracts/CreditMe.sol\":1015:1062  payable(msg.sender).send(address(this).balance) */\n      swap1\n      dup2\n      iszero\n      mul\n      swap1\n      mload(0x40)\n      0x00\n      mload(0x40)\n      dup1\n      dup4\n      sub\n      dup2\n      dup6\n      dup9\n      dup9\n      call\n      swap4\n      pop\n      pop\n      pop\n      pop\n        /* \"contracts/CreditMe.sol\":1000:1062  bool success = payable(msg.sender).send(address(this).balance) */\n      swap1\n      pop\n        /* \"contracts/CreditMe.sol\":1075:1082  success */\n      dup1\n        /* \"contracts/CreditMe.sol\":1067:1093  require(success, \"failed\") */\n      tag_58\n      jumpi\n      mload(0x40)\n      0x08c379a000000000000000000000000000000000000000000000000000000000\n      dup2\n      mstore\n      0x04\n      add\n      tag_59\n      swap1\n      tag_60\n      jump\t// in\n    tag_59:\n      mload(0x40)\n      dup1\n      swap2\n      sub\n      swap1\n      revert\n    tag_58:\n        /* \"contracts/CreditMe.sol\":1109:1125  bool Sendsuccess */\n      0x00\n        /* \"contracts/CreditMe.sol\":1138:1148  msg.sender */\n      caller\n        /* \"contracts/CreditMe.sol\":1130:1154  payable(msg.sender).call */\n      0xffffffffffffffffffffffffffffffffffffffff\n      and\n        /* \"contracts/CreditMe.sol\":1162:1183  address(this).balance */\n      selfbalance\n        /* \"contracts/CreditMe.sol\":1130:1188  payable(msg.sender).call{value: address(this).balance}(\"\") */\n      mload(0x40)\n      tag_61\n      swap1\n      tag_62\n      jump\t// in\n    tag_61:\n      0x00\n      mload(0x40)\n      dup1\n      dup4\n      sub\n      dup2\n      dup6\n      dup8\n      gas\n      call\n      swap3\n      pop\n      pop\n      pop\n      returndatasize\n      dup1\n      0x00\n      dup2\n      eq\n      tag_65\n      jumpi\n      mload(0x40)\n      swap2\n      pop\n      and(add(returndatasize, 0x3f), not(0x1f))\n      dup3\n      add\n      0x40\n      mstore\n      returndatasize\n      dup3\n      mstore\n      returndatasize\n      0x00\n      0x20\n      dup5\n      add\n      returndatacopy\n      jump(tag_64)\n    tag_65:\n      0x60\n      swap2\n      pop\n    tag_64:\n      pop\n        /* \"contracts/CreditMe.sol\":1108:1188  (bool Sendsuccess,) = payable(msg.sender).call{value: address(this).balance}(\"\") */\n      pop\n      swap1\n      pop\n        /* \"contracts/CreditMe.sol\":1201:1212  Sendsuccess */\n      dup1\n        /* \"contracts/CreditMe.sol\":1193:1223  require(Sendsuccess, \"failed\") */\n      tag_66\n      jumpi\n      mload(0x40)\n      0x08c379a000000000000000000000000000000000000000000000000000000000\n      dup2\n      mstore\n      0x04\n      add\n      tag_67\n      swap1\n      tag_60\n      jump\t// in\n    tag_67:\n      mload(0x40)\n      dup1\n      swap2\n      sub\n      swap1\n      revert\n    tag_66:\n        /* \"contracts/CreditMe.sol\":726:1230  {... */\n      pop\n      pop\n        /* \"contracts/CreditMe.sol\":691:1230  function withdraw()public onlyOwner{... */\n      jump\t// out\n        /* \"contracts/CreditMe.sol\":462:686  function FundMe() public payable {... */\n    tag_12:\n        /* \"contracts/CreditMe.sol\":313:322  50 * 1e18 */\n      0x02b5e3af16b1880000\n        /* \"contracts/CreditMe.sol\":510:535  msg.value.getConvertion() */\n      tag_69\n        /* \"contracts/CreditMe.sol\":510:519  msg.value */\n      callvalue\n        /* \"contracts/CreditMe.sol\":510:533  msg.value.getConvertion */\n      tag_70\n        /* \"contracts/CreditMe.sol\":510:535  msg.value.getConvertion() */\n      jump\t// in\n    tag_69:\n        /* \"contracts/CreditMe.sol\":510:550  msg.value.getConvertion() >= MINIMUM_USD */\n      lt\n      iszero\n        /* \"contracts/CreditMe.sol\":502:565  require(msg.value.getConvertion() >= MINIMUM_USD, \"Not Enough\") */\n      tag_71\n      jumpi\n      mload(0x40)\n      0x08c379a000000000000000000000000000000000000000000000000000000000\n      dup2\n      mstore\n      0x04\n      add\n      tag_72\n      swap1\n      tag_73\n      jump\t// in\n    tag_72:\n      mload(0x40)\n      dup1\n      swap2\n      sub\n      swap1\n      revert\n    tag_71:\n        /* \"contracts/CreditMe.sol\":572:579  funders */\n      0x00\n        /* \"contracts/CreditMe.sol\":585:595  msg.sender */\n      caller\n        /* \"contracts/CreditMe.sol\":572:596  funders.push(msg.sender) */\n      swap1\n      dup1\n      0x01\n      dup2\n      sload\n      add\n      dup1\n      dup3\n      sstore\n      dup1\n      swap2\n      pop\n      pop\n      0x01\n      swap1\n      sub\n      swap1\n      0x00\n      mstore\n      keccak256(0x00, 0x20)\n      add\n      0x00\n      swap1\n      swap2\n      swap1\n      swap2\n      swap1\n      swap2\n      0x0100\n      exp\n      dup2\n      sload\n      dup2\n      0xffffffffffffffffffffffffffffffffffffffff\n      mul\n      not\n      and\n      swap1\n      dup4\n      0xffffffffffffffffffffffffffffffffffffffff\n      and\n      mul\n      or\n      swap1\n      sstore\n      pop\n        /* \"contracts/CreditMe.sol\":669:678  msg.value */\n      callvalue\n        /* \"contracts/CreditMe.sol\":639:653  amountToNumber */\n      0x01\n        /* \"contracts/CreditMe.sol\":639:665  amountToNumber[msg.sender] */\n      0x00\n        /* \"contracts/CreditMe.sol\":654:664  msg.sender */\n      caller\n        /* \"contracts/CreditMe.sol\":639:665  amountToNumber[msg.sender] */\n      0xffffffffffffffffffffffffffffffffffffffff\n      and\n      0xffffffffffffffffffffffffffffffffffffffff\n      and\n      dup2\n      mstore\n      0x20\n      add\n      swap1\n      dup2\n      mstore\n      0x20\n      add\n      0x00\n      keccak256\n      0x00\n        /* \"contracts/CreditMe.sol\":639:678  amountToNumber[msg.sender] += msg.value */\n      dup3\n      dup3\n      sload\n      tag_75\n      swap2\n      swap1\n      tag_76\n      jump\t// in\n    tag_75:\n      swap3\n      pop\n      pop\n      dup2\n      swap1\n      sstore\n      pop\n        /* \"contracts/CreditMe.sol\":462:686  function FundMe() public payable {... */\n      jump\t// out\n        /* \"contracts/CreditMe.sol\":275:322  uint256 public constant MINIMUM_USD = 50 * 1e18 */\n    tag_15:\n        /* \"contracts/CreditMe.sol\":313:322  50 * 1e18 */\n      0x02b5e3af16b1880000\n        /* \"contracts/CreditMe.sol\":275:322  uint256 public constant MINIMUM_USD = 50 * 1e18 */\n      dup2\n      jump\t// out\n        /* \"contracts/CreditMe.sol\":356:406  mapping (address => uint256) public amountToNumber */\n    tag_22:\n      mstore(0x20, 0x01)\n      dup1\n      0x00\n      mstore\n      keccak256(0x00, 0x40)\n      0x00\n      swap2\n      pop\n      swap1\n      pop\n      sload\n      dup2\n      jump\t// out\n        /* \"contracts/CreditMe.sol\":238:270  address public immutable i_owner */\n    tag_26:\n      immutable(\"0x6b3e710f3089a74ecb6b0f5948e5ff07a3db6ba4da475d2be17624ba96b95b\")\n      dup2\n      jump\t// out\n        /* \"contracts/CreditMe.sol\":327:351  address[] public funders */\n    tag_33:\n      0x00\n      dup2\n      dup2\n      sload\n      dup2\n      lt\n      tag_77\n      jumpi\n      0x00\n      dup1\n      revert\n    tag_77:\n      swap1\n      0x00\n      mstore\n      keccak256(0x00, 0x20)\n      add\n      0x00\n      swap2\n      pop\n      sload\n      swap1\n      0x0100\n      exp\n      swap1\n      div\n      0xffffffffffffffffffffffffffffffffffffffff\n      and\n      dup2\n      jump\t// out\n        /* \"contracts/PriceConverter.sol\":674:878  function getConvertion(uint256 ethAmount) internal view returns(uint256) {... */\n    tag_70:\n        /* \"contracts/PriceConverter.sol\":738:745  uint256 */\n      0x00\n        /* \"contracts/PriceConverter.sol\":754:770  uint256 ethPrice */\n      dup1\n        /* \"contracts/PriceConverter.sol\":773:783  getPrice() */\n      tag_80\n        /* \"contracts/PriceConverter.sol\":773:781  getPrice */\n      tag_81\n        /* \"contracts/PriceConverter.sol\":773:783  getPrice() */\n      jump\t// in\n    tag_80:\n        /* \"contracts/PriceConverter.sol\":754:783  uint256 ethPrice = getPrice() */\n      swap1\n      pop\n        /* \"contracts/PriceConverter.sol\":790:812  uint256 ethAmountInUsd */\n      0x00\n        /* \"contracts/PriceConverter.sol\":840:844  1e18 */\n      0x0de0b6b3a7640000\n        /* \"contracts/PriceConverter.sol\":827:836  ethAmount */\n      dup5\n        /* \"contracts/PriceConverter.sol\":816:824  ethPrice */\n      dup4\n        /* \"contracts/PriceConverter.sol\":816:836  ethPrice * ethAmount */\n      tag_82\n      swap2\n      swap1\n      tag_83\n      jump\t// in\n    tag_82:\n        /* \"contracts/PriceConverter.sol\":815:844  (ethPrice * ethAmount) / 1e18 */\n      tag_84\n      swap2\n      swap1\n      tag_85\n      jump\t// in\n    tag_84:\n        /* \"contracts/PriceConverter.sol\":790:844  uint256 ethAmountInUsd = (ethPrice * ethAmount) / 1e18 */\n      swap1\n      pop\n        /* \"contracts/PriceConverter.sol\":858:872  ethAmountInUsd */\n      dup1\n        /* \"contracts/PriceConverter.sol\":851:872  return ethAmountInUsd */\n      swap3\n      pop\n      pop\n      pop\n        /* \"contracts/PriceConverter.sol\":674:878  function getConvertion(uint256 ethAmount) internal view returns(uint256) {... */\n      swap2\n      swap1\n      pop\n      jump\t// out\n        /* \"contracts/PriceConverter.sol\":169:461  function getPrice () internal view returns(uint256){... */\n    tag_81:\n        /* \"contracts/PriceConverter.sol\":212:219  uint256 */\n      0x00\n        /* \"contracts/PriceConverter.sol\":227:258  AggregatorV3Interface priceFeed */\n      dup1\n        /* \"contracts/PriceConverter.sol\":283:325  0x694AA1769357215DE4FAC081bf1f309aDC325306 */\n      0x694aa1769357215de4fac081bf1f309adc325306\n        /* \"contracts/PriceConverter.sol\":227:326  AggregatorV3Interface priceFeed = AggregatorV3Interface(0x694AA1769357215DE4FAC081bf1f309aDC325306) */\n      swap1\n      pop\n        /* \"contracts/PriceConverter.sol\":335:347  int256 price */\n      0x00\n        /* \"contracts/PriceConverter.sol\":354:363  priceFeed */\n      dup2\n        /* \"contracts/PriceConverter.sol\":354:379  priceFeed.latestRoundData */\n      0xffffffffffffffffffffffffffffffffffffffff\n      and\n      0xfeaf968c\n        /* \"contracts/PriceConverter.sol\":354:381  priceFeed.latestRoundData() */\n      mload(0x40)\n      dup2\n      0xffffffff\n      and\n      0xe0\n      shl\n      dup2\n      mstore\n      0x04\n      add\n      0xa0\n      mload(0x40)\n      dup1\n      dup4\n      sub\n      dup2\n      dup7\n      gas\n      staticcall\n      iszero\n      dup1\n      iszero\n      tag_88\n      jumpi\n      returndatasize\n      0x00\n      dup1\n      returndatacopy\n      revert(0x00, returndatasize)\n    tag_88:\n      pop\n      pop\n      pop\n      pop\n      mload(0x40)\n      returndatasize\n      not(0x1f)\n      0x1f\n      dup3\n      add\n      and\n      dup3\n      add\n      dup1\n      0x40\n      mstore\n      pop\n      dup2\n      add\n      swap1\n      tag_89\n      swap2\n      swap1\n      tag_90\n      jump\t// in\n    tag_89:\n        /* \"contracts/PriceConverter.sol\":333:381  (,int256 price,,,) = priceFeed.latestRoundData() */\n      pop\n      pop\n      pop\n      swap2\n      pop\n      pop\n        /* \"contracts/PriceConverter.sol\":447:452  10e18 */\n      0x8ac7230489e80000\n        /* \"contracts/PriceConverter.sol\":439:444  price */\n      dup2\n        /* \"contracts/PriceConverter.sol\":439:452  price * 10e18 */\n      tag_91\n      swap2\n      swap1\n      tag_92\n      jump\t// in\n    tag_91:\n        /* \"contracts/PriceConverter.sol\":424:453  return uint256(price * 10e18) */\n      swap3\n      pop\n      pop\n      pop\n        /* \"contracts/PriceConverter.sol\":169:461  function getPrice () internal view returns(uint256){... */\n      swap1\n      jump\t// out\n    tag_54:\n      dup3\n      dup1\n      sload\n      dup3\n      dup3\n      sstore\n      swap1\n      0x00\n      mstore\n      keccak256(0x00, 0x20)\n      swap1\n      dup2\n      add\n      swap3\n      dup3\n      iszero\n      tag_93\n      jumpi\n      swap2\n      0x20\n      mul\n      dup3\n      add\n    tag_94:\n      dup3\n      dup2\n      gt\n      iszero\n      tag_95\n      jumpi\n      dup3\n      mload\n      dup3\n      exp(0x0100, 0x00)\n      dup2\n      sload\n      dup2\n      0xffffffffffffffffffffffffffffffffffffffff\n      mul\n      not\n      and\n      swap1\n      dup4\n      0xffffffffffffffffffffffffffffffffffffffff\n      and\n      mul\n      or\n      swap1\n      sstore\n      pop\n      swap2\n      0x20\n      add\n      swap2\n      swap1\n      0x01\n      add\n      swap1\n      jump(tag_94)\n    tag_95:\n    tag_93:\n      pop\n      swap1\n      pop\n      tag_96\n      swap2\n      swap1\n      tag_97\n      jump\t// in\n    tag_96:\n      pop\n      swap1\n      jump\t// out\n    tag_97:\n    tag_98:\n      dup1\n      dup3\n      gt\n      iszero\n      tag_99\n      jumpi\n      0x00\n      dup2\n      0x00\n      swap1\n      sstore\n      pop\n      0x01\n      add\n      jump(tag_98)\n    tag_99:\n      pop\n      swap1\n      jump\t// out\n        /* \"#utility.yul\":7:84   */\n    tag_100:\n        /* \"#utility.yul\":44:51   */\n      0x00\n        /* \"#utility.yul\":73:78   */\n      dup2\n        /* \"#utility.yul\":62:78   */\n      swap1\n      pop\n        /* \"#utility.yul\":7:84   */\n      swap2\n      swap1\n      pop\n      jump\t// out\n        /* \"#utility.yul\":90:208   */\n    tag_101:\n        /* \"#utility.yul\":177:201   */\n      tag_134\n        /* \"#utility.yul\":195:200   */\n      dup2\n        /* \"#utility.yul\":177:201   */\n      tag_100\n      jump\t// in\n    tag_134:\n        /* \"#utility.yul\":172:175   */\n      dup3\n        /* \"#utility.yul\":165:202   */\n      mstore\n        /* \"#utility.yul\":90:208   */\n      pop\n      pop\n      jump\t// out\n        /* \"#utility.yul\":214:436   */\n    tag_17:\n        /* \"#utility.yul\":307:311   */\n      0x00\n        /* \"#utility.yul\":345:347   */\n      0x20\n        /* \"#utility.yul\":334:343   */\n      dup3\n        /* \"#utility.yul\":330:348   */\n      add\n        /* \"#utility.yul\":322:348   */\n      swap1\n      pop\n        /* \"#utility.yul\":358:429   */\n      tag_136\n        /* \"#utility.yul\":426:427   */\n      0x00\n        /* \"#utility.yul\":415:424   */\n      dup4\n        /* \"#utility.yul\":411:428   */\n      add\n        /* \"#utility.yul\":402:408   */\n      dup5\n        /* \"#utility.yul\":358:429   */\n      tag_101\n      jump\t// in\n    tag_136:\n        /* \"#utility.yul\":214:436   */\n      swap3\n      swap2\n      pop\n      pop\n      jump\t// out\n        /* \"#utility.yul\":523:640   */\n    tag_103:\n        /* \"#utility.yul\":632:633   */\n      0x00\n        /* \"#utility.yul\":629:630   */\n      dup1\n        /* \"#utility.yul\":622:634   */\n      revert\n        /* \"#utility.yul\":769:895   */\n    tag_105:\n        /* \"#utility.yul\":806:813   */\n      0x00\n        /* \"#utility.yul\":846:888   */\n      0xffffffffffffffffffffffffffffffffffffffff\n        /* \"#utility.yul\":839:844   */\n      dup3\n        /* \"#utility.yul\":835:889   */\n      and\n        /* \"#utility.yul\":824:889   */\n      swap1\n      pop\n        /* \"#utility.yul\":769:895   */\n      swap2\n      swap1\n      pop\n      jump\t// out\n        /* \"#utility.yul\":901:997   */\n    tag_106:\n        /* \"#utility.yul\":938:945   */\n      0x00\n        /* \"#utility.yul\":967:991   */\n      tag_142\n        /* \"#utility.yul\":985:990   */\n      dup3\n        /* \"#utility.yul\":967:991   */\n      tag_105\n      jump\t// in\n    tag_142:\n        /* \"#utility.yul\":956:991   */\n      swap1\n      pop\n        /* \"#utility.yul\":901:997   */\n      swap2\n      swap1\n      pop\n      jump\t// out\n        /* \"#utility.yul\":1003:1125   */\n    tag_107:\n        /* \"#utility.yul\":1076:1100   */\n      tag_144\n        /* \"#utility.yul\":1094:1099   */\n      dup2\n        /* \"#utility.yul\":1076:1100   */\n      tag_106\n      jump\t// in\n    tag_144:\n        /* \"#utility.yul\":1069:1074   */\n      dup2\n        /* \"#utility.yul\":1066:1101   */\n      eq\n        /* \"#utility.yul\":1056:1119   */\n      tag_145\n      jumpi\n        /* \"#utility.yul\":1115:1116   */\n      0x00\n        /* \"#utility.yul\":1112:1113   */\n      dup1\n        /* \"#utility.yul\":1105:1117   */\n      revert\n        /* \"#utility.yul\":1056:1119   */\n    tag_145:\n        /* \"#utility.yul\":1003:1125   */\n      pop\n      jump\t// out\n        /* \"#utility.yul\":1131:1270   */\n    tag_108:\n        /* \"#utility.yul\":1177:1182   */\n      0x00\n        /* \"#utility.yul\":1215:1221   */\n      dup2\n        /* \"#utility.yul\":1202:1222   */\n      calldataload\n        /* \"#utility.yul\":1193:1222   */\n      swap1\n      pop\n        /* \"#utility.yul\":1231:1264   */\n      tag_147\n        /* \"#utility.yul\":1258:1263   */\n      dup2\n        /* \"#utility.yul\":1231:1264   */\n      tag_107\n      jump\t// in\n    tag_147:\n        /* \"#utility.yul\":1131:1270   */\n      swap3\n      swap2\n      pop\n      pop\n      jump\t// out\n        /* \"#utility.yul\":1276:1605   */\n    tag_21:\n        /* \"#utility.yul\":1335:1341   */\n      0x00\n        /* \"#utility.yul\":1384:1386   */\n      0x20\n        /* \"#utility.yul\":1372:1381   */\n      dup3\n        /* \"#utility.yul\":1363:1370   */\n      dup5\n        /* \"#utility.yul\":1359:1382   */\n      sub\n        /* \"#utility.yul\":1355:1387   */\n      slt\n        /* \"#utility.yul\":1352:1471   */\n      iszero\n      tag_149\n      jumpi\n        /* \"#utility.yul\":1390:1469   */\n      tag_150\n      tag_103\n      jump\t// in\n    tag_150:\n        /* \"#utility.yul\":1352:1471   */\n    tag_149:\n        /* \"#utility.yul\":1510:1511   */\n      0x00\n        /* \"#utility.yul\":1535:1588   */\n      tag_151\n        /* \"#utility.yul\":1580:1587   */\n      dup5\n        /* \"#utility.yul\":1571:1577   */\n      dup3\n        /* \"#utility.yul\":1560:1569   */\n      dup6\n        /* \"#utility.yul\":1556:1578   */\n      add\n        /* \"#utility.yul\":1535:1588   */\n      tag_108\n      jump\t// in\n    tag_151:\n        /* \"#utility.yul\":1525:1588   */\n      swap2\n      pop\n        /* \"#utility.yul\":1481:1598   */\n      pop\n        /* \"#utility.yul\":1276:1605   */\n      swap3\n      swap2\n      pop\n      pop\n      jump\t// out\n        /* \"#utility.yul\":1611:1729   */\n    tag_109:\n        /* \"#utility.yul\":1698:1722   */\n      tag_153\n        /* \"#utility.yul\":1716:1721   */\n      dup2\n        /* \"#utility.yul\":1698:1722   */\n      tag_106\n      jump\t// in\n    tag_153:\n        /* \"#utility.yul\":1693:1696   */\n      dup3\n        /* \"#utility.yul\":1686:1723   */\n      mstore\n        /* \"#utility.yul\":1611:1729   */\n      pop\n      pop\n      jump\t// out\n        /* \"#utility.yul\":1735:1957   */\n    tag_28:\n        /* \"#utility.yul\":1828:1832   */\n      0x00\n        /* \"#utility.yul\":1866:1868   */\n      0x20\n        /* \"#utility.yul\":1855:1864   */\n      dup3\n        /* \"#utility.yul\":1851:1869   */\n      add\n        /* \"#utility.yul\":1843:1869   */\n      swap1\n      pop\n        /* \"#utility.yul\":1879:1950   */\n      tag_155\n        /* \"#utility.yul\":1947:1948   */\n      0x00\n        /* \"#utility.yul\":1936:1945   */\n      dup4\n        /* \"#utility.yul\":1932:1949   */\n      add\n        /* \"#utility.yul\":1923:1929   */\n      dup5\n        /* \"#utility.yul\":1879:1950   */\n      tag_109\n      jump\t// in\n    tag_155:\n        /* \"#utility.yul\":1735:1957   */\n      swap3\n      swap2\n      pop\n      pop\n      jump\t// out\n        /* \"#utility.yul\":1963:2085   */\n    tag_110:\n        /* \"#utility.yul\":2036:2060   */\n      tag_157\n        /* \"#utility.yul\":2054:2059   */\n      dup2\n        /* \"#utility.yul\":2036:2060   */\n      tag_100\n      jump\t// in\n    tag_157:\n        /* \"#utility.yul\":2029:2034   */\n      dup2\n        /* \"#utility.yul\":2026:2061   */\n      eq\n        /* \"#utility.yul\":2016:2079   */\n      tag_158\n      jumpi\n        /* \"#utility.yul\":2075:2076   */\n      0x00\n        /* \"#utility.yul\":2072:2073   */\n      dup1\n        /* \"#utility.yul\":2065:2077   */\n      revert\n        /* \"#utility.yul\":2016:2079   */\n    tag_158:\n        /* \"#utility.yul\":1963:2085   */\n      pop\n      jump\t// out\n        /* \"#utility.yul\":2091:2230   */\n    tag_111:\n        /* \"#utility.yul\":2137:2142   */\n      0x00\n        /* \"#utility.yul\":2175:2181   */\n      dup2\n        /* \"#utility.yul\":2162:2182   */\n      calldataload\n        /* \"#utility.yul\":2153:2182   */\n      swap1\n      pop\n        /* \"#utility.yul\":2191:2224   */\n      tag_160\n        /* \"#utility.yul\":2218:2223   */\n      dup2\n        /* \"#utility.yul\":2191:2224   */\n      tag_110\n      jump\t// in\n    tag_160:\n        /* \"#utility.yul\":2091:2230   */\n      swap3\n      swap2\n      pop\n      pop\n      jump\t// out\n        /* \"#utility.yul\":2236:2565   */\n    tag_32:\n        /* \"#utility.yul\":2295:2301   */\n      0x00\n        /* \"#utility.yul\":2344:2346   */\n      0x20\n        /* \"#utility.yul\":2332:2341   */\n      dup3\n        /* \"#utility.yul\":2323:2330   */\n      dup5\n        /* \"#utility.yul\":2319:2342   */\n      sub\n        /* \"#utility.yul\":2315:2347   */\n      slt\n        /* \"#utility.yul\":2312:2431   */\n      iszero\n      tag_162\n      jumpi\n        /* \"#utility.yul\":2350:2429   */\n      tag_163\n      tag_103\n      jump\t// in\n    tag_163:\n        /* \"#utility.yul\":2312:2431   */\n    tag_162:\n        /* \"#utility.yul\":2470:2471   */\n      0x00\n        /* \"#utility.yul\":2495:2548   */\n      tag_164\n        /* \"#utility.yul\":2540:2547   */\n      dup5\n        /* \"#utility.yul\":2531:2537   */\n      dup3\n        /* \"#utility.yul\":2520:2529   */\n      dup6\n        /* \"#utility.yul\":2516:2538   */\n      add\n        /* \"#utility.yul\":2495:2548   */\n      tag_111\n      jump\t// in\n    tag_164:\n        /* \"#utility.yul\":2485:2548   */\n      swap2\n      pop\n        /* \"#utility.yul\":2441:2558   */\n      pop\n        /* \"#utility.yul\":2236:2565   */\n      swap3\n      swap2\n      pop\n      pop\n      jump\t// out\n        /* \"#utility.yul\":2571:2740   */\n    tag_112:\n        /* \"#utility.yul\":2655:2666   */\n      0x00\n        /* \"#utility.yul\":2689:2695   */\n      dup3\n        /* \"#utility.yul\":2684:2687   */\n      dup3\n        /* \"#utility.yul\":2677:2696   */\n      mstore\n        /* \"#utility.yul\":2729:2733   */\n      0x20\n        /* \"#utility.yul\":2724:2727   */\n      dup3\n        /* \"#utility.yul\":2720:2734   */\n      add\n        /* \"#utility.yul\":2705:2734   */\n      swap1\n      pop\n        /* \"#utility.yul\":2571:2740   */\n      swap3\n      swap2\n      pop\n      pop\n      jump\t// out\n        /* \"#utility.yul\":2746:2905   */\n    tag_113:\n        /* \"#utility.yul\":2886:2897   */\n      0x6e6f74206f776e65720000000000000000000000000000000000000000000000\n        /* \"#utility.yul\":2882:2883   */\n      0x00\n        /* \"#utility.yul\":2874:2880   */\n      dup3\n        /* \"#utility.yul\":2870:2884   */\n      add\n        /* \"#utility.yul\":2863:2898   */\n      mstore\n        /* \"#utility.yul\":2746:2905   */\n      pop\n      jump\t// out\n        /* \"#utility.yul\":2911:3276   */\n    tag_114:\n        /* \"#utility.yul\":3053:3056   */\n      0x00\n        /* \"#utility.yul\":3074:3140   */\n      tag_168\n        /* \"#utility.yul\":3138:3139   */\n      0x09\n        /* \"#utility.yul\":3133:3136   */\n      dup4\n        /* \"#utility.yul\":3074:3140   */\n      tag_112\n      jump\t// in\n    tag_168:\n        /* \"#utility.yul\":3067:3140   */\n      swap2\n      pop\n        /* \"#utility.yul\":3149:3242   */\n      tag_169\n        /* \"#utility.yul\":3238:3241   */\n      dup3\n        /* \"#utility.yul\":3149:3242   */\n      tag_113\n      jump\t// in\n    tag_169:\n        /* \"#utility.yul\":3267:3269   */\n      0x20\n        /* \"#utility.yul\":3262:3265   */\n      dup3\n        /* \"#utility.yul\":3258:3270   */\n      add\n        /* \"#utility.yul\":3251:3270   */\n      swap1\n      pop\n        /* \"#utility.yul\":2911:3276   */\n      swap2\n      swap1\n      pop\n      jump\t// out\n        /* \"#utility.yul\":3282:3701   */\n    tag_38:\n        /* \"#utility.yul\":3448:3452   */\n      0x00\n        /* \"#utility.yul\":3486:3488   */\n      0x20\n        /* \"#utility.yul\":3475:3484   */\n      dup3\n        /* \"#utility.yul\":3471:3489   */\n      add\n        /* \"#utility.yul\":3463:3489   */\n      swap1\n      pop\n        /* \"#utility.yul\":3535:3544   */\n      dup2\n        /* \"#utility.yul\":3529:3533   */\n      dup2\n        /* \"#utility.yul\":3525:3545   */\n      sub\n        /* \"#utility.yul\":3521:3522   */\n      0x00\n        /* \"#utility.yul\":3510:3519   */\n      dup4\n        /* \"#utility.yul\":3506:3523   */\n      add\n        /* \"#utility.yul\":3499:3546   */\n      mstore\n        /* \"#utility.yul\":3563:3694   */\n      tag_171\n        /* \"#utility.yul\":3689:3693   */\n      dup2\n        /* \"#utility.yul\":3563:3694   */\n      tag_114\n      jump\t// in\n    tag_171:\n        /* \"#utility.yul\":3555:3694   */\n      swap1\n      pop\n        /* \"#utility.yul\":3282:3701   */\n      swap2\n      swap1\n      pop\n      jump\t// out\n        /* \"#utility.yul\":3707:3887   */\n    tag_45:\n        /* \"#utility.yul\":3755:3832   */\n      0x4e487b7100000000000000000000000000000000000000000000000000000000\n        /* \"#utility.yul\":3752:3753   */\n      0x00\n        /* \"#utility.yul\":3745:3833   */\n      mstore\n        /* \"#utility.yul\":3852:3856   */\n      0x32\n        /* \"#utility.yul\":3849:3850   */\n      0x04\n        /* \"#utility.yul\":3842:3857   */\n      mstore\n        /* \"#utility.yul\":3876:3880   */\n      0x24\n        /* \"#utility.yul\":3873:3874   */\n      0x00\n        /* \"#utility.yul\":3866:3881   */\n      revert\n        /* \"#utility.yul\":3893:4073   */\n    tag_115:\n        /* \"#utility.yul\":3941:4018   */\n      0x4e487b7100000000000000000000000000000000000000000000000000000000\n        /* \"#utility.yul\":3938:3939   */\n      0x00\n        /* \"#utility.yul\":3931:4019   */\n      mstore\n        /* \"#utility.yul\":4038:4042   */\n      0x11\n        /* \"#utility.yul\":4035:4036   */\n      0x04\n        /* \"#utility.yul\":4028:4043   */\n      mstore\n        /* \"#utility.yul\":4062:4066   */\n      0x24\n        /* \"#utility.yul\":4059:4060   */\n      0x00\n        /* \"#utility.yul\":4052:4067   */\n      revert\n        /* \"#utility.yul\":4079:4312   */\n    tag_48:\n        /* \"#utility.yul\":4118:4121   */\n      0x00\n        /* \"#utility.yul\":4141:4165   */\n      tag_175\n        /* \"#utility.yul\":4159:4164   */\n      dup3\n        /* \"#utility.yul\":4141:4165   */\n      tag_100\n      jump\t// in\n    tag_175:\n        /* \"#utility.yul\":4132:4165   */\n      swap2\n      pop\n        /* \"#utility.yul\":4187:4253   */\n      0xffffffffffffffffffffffffffffffffffffffffffffffffffffffffffffffff\n        /* \"#utility.yul\":4180:4185   */\n      dup3\n        /* \"#utility.yul\":4177:4254   */\n      sub\n        /* \"#utility.yul\":4174:4277   */\n      tag_176\n      jumpi\n        /* \"#utility.yul\":4257:4275   */\n      tag_177\n      tag_115\n      jump\t// in\n    tag_177:\n        /* \"#utility.yul\":4174:4277   */\n    tag_176:\n        /* \"#utility.yul\":4304:4305   */\n      0x01\n        /* \"#utility.yul\":4297:4302   */\n      dup3\n        /* \"#utility.yul\":4293:4306   */\n      add\n        /* \"#utility.yul\":4286:4306   */\n      swap1\n      pop\n        /* \"#utility.yul\":4079:4312   */\n      swap2\n      swap1\n      pop\n      jump\t// out\n        /* \"#utility.yul\":4318:4498   */\n    tag_51:\n        /* \"#utility.yul\":4366:4443   */\n      0x4e487b7100000000000000000000000000000000000000000000000000000000\n        /* \"#utility.yul\":4363:4364   */\n      0x00\n        /* \"#utility.yul\":4356:4444   */\n      mstore\n        /* \"#utility.yul\":4463:4467   */\n      0x41\n        /* \"#utility.yul\":4460:4461   */\n      0x04\n        /* \"#utility.yul\":4453:4468   */\n      mstore\n        /* \"#utility.yul\":4487:4491   */\n      0x24\n        /* \"#utility.yul\":4484:4485   */\n      0x00\n        /* \"#utility.yul\":4477:4492   */\n      revert\n        /* \"#utility.yul\":4504:4660   */\n    tag_116:\n        /* \"#utility.yul\":4644:4652   */\n      0x6661696c65640000000000000000000000000000000000000000000000000000\n        /* \"#utility.yul\":4640:4641   */\n      0x00\n        /* \"#utility.yul\":4632:4638   */\n      dup3\n        /* \"#utility.yul\":4628:4642   */\n      add\n        /* \"#utility.yul\":4621:4653   */\n      mstore\n        /* \"#utility.yul\":4504:4660   */\n      pop\n      jump\t// out\n        /* \"#utility.yul\":4666:5031   */\n    tag_117:\n        /* \"#utility.yul\":4808:4811   */\n      0x00\n        /* \"#utility.yul\":4829:4895   */\n      tag_181\n        /* \"#utility.yul\":4893:4894   */\n      0x06\n        /* \"#utility.yul\":4888:4891   */\n      dup4\n        /* \"#utility.yul\":4829:4895   */\n      tag_112\n      jump\t// in\n    tag_181:\n        /* \"#utility.yul\":4822:4895   */\n      swap2\n      pop\n        /* \"#utility.yul\":4904:4997   */\n      tag_182\n        /* \"#utility.yul\":4993:4996   */\n      dup3\n        /* \"#utility.yul\":4904:4997   */\n      tag_116\n      jump\t// in\n    tag_182:\n        /* \"#utility.yul\":5022:5024   */\n      0x20\n        /* \"#utility.yul\":5017:5020   */\n      dup3\n        /* \"#utility.yul\":5013:5025   */\n      add\n        /* \"#utility.yul\":5006:5025   */\n      swap1\n      pop\n        /* \"#utility.yul\":4666:5031   */\n      swap2\n      swap1\n      pop\n      jump\t// out\n        /* \"#utility.yul\":5037:5456   */\n    tag_60:\n        /* \"#utility.yul\":5203:5207   */\n      0x00\n        /* \"#utility.yul\":5241:5243   */\n      0x20\n        /* \"#utility.yul\":5230:5239   */\n      dup3\n        /* \"#utility.yul\":5226:5244   */\n      add\n        /* \"#utility.yul\":5218:5244   */\n      swap1\n      pop\n        /* \"#utility.yul\":5290:5299   */\n      dup2\n        /* \"#utility.yul\":5284:5288   */\n      dup2\n        /* \"#utility.yul\":5280:5300   */\n      sub\n        /* \"#utility.yul\":5276:5277   */\n      0x00\n        /* \"#utility.yul\":5265:5274   */\n      dup4\n        /* \"#utility.yul\":5261:5278   */\n      add\n        /* \"#utility.yul\":5254:5301   */\n      mstore\n        /* \"#utility.yul\":5318:5449   */\n      tag_184\n        /* \"#utility.yul\":5444:5448   */\n      dup2\n        /* \"#utility.yul\":5318:5449   */\n      tag_117\n      jump\t// in\n    tag_184:\n        /* \"#utility.yul\":5310:5449   */\n      swap1\n      pop\n        /* \"#utility.yul\":5037:5456   */\n      swap2\n      swap1\n      pop\n      jump\t// out\n        /* \"#utility.yul\":5462:5609   */\n    tag_118:\n        /* \"#utility.yul\":5563:5574   */\n      0x00\n        /* \"#utility.yul\":5600:5603   */\n      dup2\n        /* \"#utility.yul\":5585:5603   */\n      swap1\n      pop\n        /* \"#utility.yul\":5462:5609   */\n      swap3\n      swap2\n      pop\n      pop\n      jump\t// out\n        /* \"#utility.yul\":5615:5729   */\n    tag_119:\n      pop\n      jump\t// out\n        /* \"#utility.yul\":5735:6133   */\n    tag_120:\n        /* \"#utility.yul\":5894:5897   */\n      0x00\n        /* \"#utility.yul\":5915:5998   */\n      tag_188\n        /* \"#utility.yul\":5996:5997   */\n      0x00\n        /* \"#utility.yul\":5991:5994   */\n      dup4\n        /* \"#utility.yul\":5915:5998   */\n      tag_118\n      jump\t// in\n    tag_188:\n        /* \"#utility.yul\":5908:5998   */\n      swap2\n      pop\n        /* \"#utility.yul\":6007:6100   */\n      tag_189\n        /* \"#utility.yul\":6096:6099   */\n      dup3\n        /* \"#utility.yul\":6007:6100   */\n      tag_119\n      jump\t// in\n    tag_189:\n        /* \"#utility.yul\":6125:6126   */\n      0x00\n        /* \"#utility.yul\":6120:6123   */\n      dup3\n        /* \"#utility.yul\":6116:6127   */\n      add\n        /* \"#utility.yul\":6109:6127   */\n      swap1\n      pop\n        /* \"#utility.yul\":5735:6133   */\n      swap2\n      swap1\n      pop\n      jump\t// out\n        /* \"#utility.yul\":6139:6518   */\n    tag_62:\n        /* \"#utility.yul\":6323:6326   */\n      0x00\n        /* \"#utility.yul\":6345:6492   */\n      tag_191\n        /* \"#utility.yul\":6488:6491   */\n      dup3\n        /* \"#utility.yul\":6345:6492   */\n      tag_120\n      jump\t// in\n    tag_191:\n        /* \"#utility.yul\":6338:6492   */\n      swap2\n      pop\n        /* \"#utility.yul\":6509:6512   */\n      dup2\n        /* \"#utility.yul\":6502:6512   */\n      swap1\n      pop\n        /* \"#utility.yul\":6139:6518   */\n      swap2\n      swap1\n      pop\n      jump\t// out\n        /* \"#utility.yul\":6524:6684   */\n    tag_121:\n        /* \"#utility.yul\":6664:6676   */\n      0x4e6f7420456e6f75676800000000000000000000000000000000000000000000\n        /* \"#utility.yul\":6660:6661   */\n      0x00\n        /* \"#utility.yul\":6652:6658   */\n      dup3\n        /* \"#utility.yul\":6648:6662   */\n      add\n        /* \"#utility.yul\":6641:6677   */\n      mstore\n        /* \"#utility.yul\":6524:6684   */\n      pop\n      jump\t// out\n        /* \"#utility.yul\":6690:7056   */\n    tag_122:\n        /* \"#utility.yul\":6832:6835   */\n      0x00\n        /* \"#utility.yul\":6853:6920   */\n      tag_194\n        /* \"#utility.yul\":6917:6919   */\n      0x0a\n        /* \"#utility.yul\":6912:6915   */\n      dup4\n        /* \"#utility.yul\":6853:6920   */\n      tag_112\n      jump\t// in\n    tag_194:\n        /* \"#utility.yul\":6846:6920   */\n      swap2\n      pop\n        /* \"#utility.yul\":6929:7022   */\n      tag_195\n        /* \"#utility.yul\":7018:7021   */\n      dup3\n        /* \"#utility.yul\":6929:7022   */\n      tag_121\n      jump\t// in\n    tag_195:\n        /* \"#utility.yul\":7047:7049   */\n      0x20\n        /* \"#utility.yul\":7042:7045   */\n      dup3\n        /* \"#utility.yul\":7038:7050   */\n      add\n        /* \"#utility.yul\":7031:7050   */\n      swap1\n      pop\n        /* \"#utility.yul\":6690:7056   */\n      swap2\n      swap1\n      pop\n      jump\t// out\n        /* \"#utility.yul\":7062:7481   */\n    tag_73:\n        /* \"#utility.yul\":7228:7232   */\n      0x00\n        /* \"#utility.yul\":7266:7268   */\n      0x20\n        /* \"#utility.yul\":7255:7264   */\n      dup3\n        /* \"#utility.yul\":7251:7269   */\n      add\n        /* \"#utility.yul\":7243:7269   */\n      swap1\n      pop\n        /* \"#utility.yul\":7315:7324   */\n      dup2\n        /* \"#utility.yul\":7309:7313   */\n      dup2\n        /* \"#utility.yul\":7305:7325   */\n      sub\n        /* \"#utility.yul\":7301:7302   */\n      0x00\n        /* \"#utility.yul\":7290:7299   */\n      dup4\n        /* \"#utility.yul\":7286:7303   */\n      add\n        /* \"#utility.yul\":7279:7326   */\n      mstore\n        /* \"#utility.yul\":7343:7474   */\n      tag_197\n        /* \"#utility.yul\":7469:7473   */\n      dup2\n        /* \"#utility.yul\":7343:7474   */\n      tag_122\n      jump\t// in\n    tag_197:\n        /* \"#utility.yul\":7335:7474   */\n      swap1\n      pop\n        /* \"#utility.yul\":7062:7481   */\n      swap2\n      swap1\n      pop\n      jump\t// out\n        /* \"#utility.yul\":7487:7678   */\n    tag_76:\n        /* \"#utility.yul\":7527:7530   */\n      0x00\n        /* \"#utility.yul\":7546:7566   */\n      tag_199\n        /* \"#utility.yul\":7564:7565   */\n      dup3\n        /* \"#utility.yul\":7546:7566   */\n      tag_100\n      jump\t// in\n    tag_199:\n        /* \"#utility.yul\":7541:7566   */\n      swap2\n      pop\n        /* \"#utility.yul\":7580:7600   */\n      tag_200\n        /* \"#utility.yul\":7598:7599   */\n      dup4\n        /* \"#utility.yul\":7580:7600   */\n      tag_100\n      jump\t// in\n    tag_200:\n        /* \"#utility.yul\":7575:7600   */\n      swap3\n      pop\n        /* \"#utility.yul\":7623:7624   */\n      dup3\n        /* \"#utility.yul\":7620:7621   */\n      dup3\n        /* \"#utility.yul\":7616:7625   */\n      add\n        /* \"#utility.yul\":7609:7625   */\n      swap1\n      pop\n        /* \"#utility.yul\":7644:7647   */\n      dup1\n        /* \"#utility.yul\":7641:7642   */\n      dup3\n        /* \"#utility.yul\":7638:7648   */\n      gt\n        /* \"#utility.yul\":7635:7671   */\n      iszero\n      tag_201\n      jumpi\n        /* \"#utility.yul\":7651:7669   */\n      tag_202\n      tag_115\n      jump\t// in\n    tag_202:\n        /* \"#utility.yul\":7635:7671   */\n    tag_201:\n        /* \"#utility.yul\":7487:7678   */\n      swap3\n      swap2\n      pop\n      pop\n      jump\t// out\n        /* \"#utility.yul\":7684:8094   */\n    tag_83:\n        /* \"#utility.yul\":7724:7731   */\n      0x00\n        /* \"#utility.yul\":7747:7767   */\n      tag_204\n        /* \"#utility.yul\":7765:7766   */\n      dup3\n        /* \"#utility.yul\":7747:7767   */\n      tag_100\n      jump\t// in\n    tag_204:\n        /* \"#utility.yul\":7742:7767   */\n      swap2\n      pop\n        /* \"#utility.yul\":7781:7801   */\n      tag_205\n        /* \"#utility.yul\":7799:7800   */\n      dup4\n        /* \"#utility.yul\":7781:7801   */\n      tag_100\n      jump\t// in\n    tag_205:\n        /* \"#utility.yul\":7776:7801   */\n      swap3\n      pop\n        /* \"#utility.yul\":7836:7837   */\n      dup3\n        /* \"#utility.yul\":7833:7834   */\n      dup3\n        /* \"#utility.yul\":7829:7838   */\n      mul\n        /* \"#utility.yul\":7858:7888   */\n      tag_206\n        /* \"#utility.yul\":7876:7887   */\n      dup2\n        /* \"#utility.yul\":7858:7888   */\n      tag_100\n      jump\t// in\n    tag_206:\n        /* \"#utility.yul\":7847:7888   */\n      swap2\n      pop\n        /* \"#utility.yul\":8037:8038   */\n      dup3\n        /* \"#utility.yul\":8028:8035   */\n      dup3\n        /* \"#utility.yul\":8024:8039   */\n      div\n        /* \"#utility.yul\":8021:8022   */\n      dup5\n        /* \"#utility.yul\":8018:8040   */\n      eq\n        /* \"#utility.yul\":7998:7999   */\n      dup4\n        /* \"#utility.yul\":7991:8000   */\n      iszero\n        /* \"#utility.yul\":7971:8054   */\n      or\n        /* \"#utility.yul\":7948:8087   */\n      tag_207\n      jumpi\n        /* \"#utility.yul\":8067:8085   */\n      tag_208\n      tag_115\n      jump\t// in\n    tag_208:\n        /* \"#utility.yul\":7948:8087   */\n    tag_207:\n        /* \"#utility.yul\":7732:8094   */\n      pop\n        /* \"#utility.yul\":7684:8094   */\n      swap3\n      swap2\n      pop\n      pop\n      jump\t// out\n        /* \"#utility.yul\":8100:8280   */\n    tag_123:\n        /* \"#utility.yul\":8148:8225   */\n      0x4e487b7100000000000000000000000000000000000000000000000000000000\n        /* \"#utility.yul\":8145:8146   */\n      0x00\n        /* \"#utility.yul\":8138:8226   */\n      mstore\n        /* \"#utility.yul\":8245:8249   */\n      0x12\n        /* \"#utility.yul\":8242:8243   */\n      0x04\n        /* \"#utility.yul\":8235:8250   */\n      mstore\n        /* \"#utility.yul\":8269:8273   */\n      0x24\n        /* \"#utility.yul\":8266:8267   */\n      0x00\n        /* \"#utility.yul\":8259:8274   */\n      revert\n        /* \"#utility.yul\":8286:8471   */\n    tag_85:\n        /* \"#utility.yul\":8326:8327   */\n      0x00\n        /* \"#utility.yul\":8343:8363   */\n      tag_211\n        /* \"#utility.yul\":8361:8362   */\n      dup3\n        /* \"#utility.yul\":8343:8363   */\n      tag_100\n      jump\t// in\n    tag_211:\n        /* \"#utility.yul\":8338:8363   */\n      swap2\n      pop\n        /* \"#utility.yul\":8377:8397   */\n      tag_212\n        /* \"#utility.yul\":8395:8396   */\n      dup4\n        /* \"#utility.yul\":8377:8397   */\n      tag_100\n      jump\t// in\n    tag_212:\n        /* \"#utility.yul\":8372:8397   */\n      swap3\n      pop\n        /* \"#utility.yul\":8416:8417   */\n      dup3\n        /* \"#utility.yul\":8406:8441   */\n      tag_213\n      jumpi\n        /* \"#utility.yul\":8421:8439   */\n      tag_214\n      tag_123\n      jump\t// in\n    tag_214:\n        /* \"#utility.yul\":8406:8441   */\n    tag_213:\n        /* \"#utility.yul\":8463:8464   */\n      dup3\n        /* \"#utility.yul\":8460:8461   */\n      dup3\n        /* \"#utility.yul\":8456:8465   */\n      div\n        /* \"#utility.yul\":8451:8465   */\n      swap1\n      pop\n        /* \"#utility.yul\":8286:8471   */\n      swap3\n      swap2\n      pop\n      pop\n      jump\t// out\n        /* \"#utility.yul\":8477:8582   */\n    tag_124:\n        /* \"#utility.yul\":8513:8520   */\n      0x00\n        /* \"#utility.yul\":8553:8575   */\n      0xffffffffffffffffffff\n        /* \"#utility.yul\":8546:8551   */\n      dup3\n        /* \"#utility.yul\":8542:8576   */\n      and\n        /* \"#utility.yul\":8531:8576   */\n      swap1\n      pop\n        /* \"#utility.yul\":8477:8582   */\n      swap2\n      swap1\n      pop\n      jump\t// out\n        /* \"#utility.yul\":8588:8708   */\n    tag_125:\n        /* \"#utility.yul\":8660:8683   */\n      tag_217\n        /* \"#utility.yul\":8677:8682   */\n      dup2\n        /* \"#utility.yul\":8660:8683   */\n      tag_124\n      jump\t// in\n    tag_217:\n        /* \"#utility.yul\":8653:8658   */\n      dup2\n        /* \"#utility.yul\":8650:8684   */\n      eq\n        /* \"#utility.yul\":8640:8702   */\n      tag_218\n      jumpi\n        /* \"#utility.yul\":8698:8699   */\n      0x00\n        /* \"#utility.yul\":8695:8696   */\n      dup1\n        /* \"#utility.yul\":8688:8700   */\n      revert\n        /* \"#utility.yul\":8640:8702   */\n    tag_218:\n        /* \"#utility.yul\":8588:8708   */\n      pop\n      jump\t// out\n        /* \"#utility.yul\":8714:8855   */\n    tag_126:\n        /* \"#utility.yul\":8770:8775   */\n      0x00\n        /* \"#utility.yul\":8801:8807   */\n      dup2\n        /* \"#utility.yul\":8795:8808   */\n      mload\n        /* \"#utility.yul\":8786:8808   */\n      swap1\n      pop\n        /* \"#utility.yul\":8817:8849   */\n      tag_220\n        /* \"#utility.yul\":8843:8848   */\n      dup2\n        /* \"#utility.yul\":8817:8849   */\n      tag_125\n      jump\t// in\n    tag_220:\n        /* \"#utility.yul\":8714:8855   */\n      swap3\n      swap2\n      pop\n      pop\n      jump\t// out\n        /* \"#utility.yul\":8861:8937   */\n    tag_127:\n        /* \"#utility.yul\":8897:8904   */\n      0x00\n        /* \"#utility.yul\":8926:8931   */\n      dup2\n        /* \"#utility.yul\":8915:8931   */\n      swap1\n      pop\n        /* \"#utility.yul\":8861:8937   */\n      swap2\n      swap1\n      pop\n      jump\t// out\n        /* \"#utility.yul\":8943:9063   */\n    tag_128:\n        /* \"#utility.yul\":9015:9038   */\n      tag_223\n        /* \"#utility.yul\":9032:9037   */\n      dup2\n        /* \"#utility.yul\":9015:9038   */\n      tag_127\n      jump\t// in\n    tag_223:\n        /* \"#utility.yul\":9008:9013   */\n      dup2\n        /* \"#utility.yul\":9005:9039   */\n      eq\n        /* \"#utility.yul\":8995:9057   */\n      tag_224\n      jumpi\n        /* \"#utility.yul\":9053:9054   */\n      0x00\n        /* \"#utility.yul\":9050:9051   */\n      dup1\n        /* \"#utility.yul\":9043:9055   */\n      revert\n        /* \"#utility.yul\":8995:9057   */\n    tag_224:\n        /* \"#utility.yul\":8943:9063   */\n      pop\n      jump\t// out\n        /* \"#utility.yul\":9069:9210   */\n    tag_129:\n        /* \"#utility.yul\":9125:9130   */\n      0x00\n        /* \"#utility.yul\":9156:9162   */\n      dup2\n        /* \"#utility.yul\":9150:9163   */\n      mload\n        /* \"#utility.yul\":9141:9163   */\n      swap1\n      pop\n        /* \"#utility.yul\":9172:9204   */\n      tag_226\n        /* \"#utility.yul\":9198:9203   */\n      dup2\n        /* \"#utility.yul\":9172:9204   */\n      tag_128\n      jump\t// in\n    tag_226:\n        /* \"#utility.yul\":9069:9210   */\n      swap3\n      swap2\n      pop\n      pop\n      jump\t// out\n        /* \"#utility.yul\":9216:9359   */\n    tag_130:\n        /* \"#utility.yul\":9273:9278   */\n      0x00\n        /* \"#utility.yul\":9304:9310   */\n      dup2\n        /* \"#utility.yul\":9298:9311   */\n      mload\n        /* \"#utility.yul\":9289:9311   */\n      swap1\n      pop\n        /* \"#utility.yul\":9320:9353   */\n      tag_228\n        /* \"#utility.yul\":9347:9352   */\n      dup2\n        /* \"#utility.yul\":9320:9353   */\n      tag_110\n      jump\t// in\n    tag_228:\n        /* \"#utility.yul\":9216:9359   */\n      swap3\n      swap2\n      pop\n      pop\n      jump\t// out\n        /* \"#utility.yul\":9365:10336   */\n    tag_90:\n        /* \"#utility.yul\":9468:9474   */\n      0x00\n        /* \"#utility.yul\":9476:9482   */\n      dup1\n        /* \"#utility.yul\":9484:9490   */\n      0x00\n        /* \"#utility.yul\":9492:9498   */\n      dup1\n        /* \"#utility.yul\":9500:9506   */\n      0x00\n        /* \"#utility.yul\":9549:9552   */\n      0xa0\n        /* \"#utility.yul\":9537:9546   */\n      dup7\n        /* \"#utility.yul\":9528:9535   */\n      dup9\n        /* \"#utility.yul\":9524:9547   */\n      sub\n        /* \"#utility.yul\":9520:9553   */\n      slt\n        /* \"#utility.yul\":9517:9637   */\n      iszero\n      tag_230\n      jumpi\n        /* \"#utility.yul\":9556:9635   */\n      tag_231\n      tag_103\n      jump\t// in\n    tag_231:\n        /* \"#utility.yul\":9517:9637   */\n    tag_230:\n        /* \"#utility.yul\":9676:9677   */\n      0x00\n        /* \"#utility.yul\":9701:9764   */\n      tag_232\n        /* \"#utility.yul\":9756:9763   */\n      dup9\n        /* \"#utility.yul\":9747:9753   */\n      dup3\n        /* \"#utility.yul\":9736:9745   */\n      dup10\n        /* \"#utility.yul\":9732:9754   */\n      add\n        /* \"#utility.yul\":9701:9764   */\n      tag_126\n      jump\t// in\n    tag_232:\n        /* \"#utility.yul\":9691:9764   */\n      swap6\n      pop\n        /* \"#utility.yul\":9647:9774   */\n      pop\n        /* \"#utility.yul\":9813:9815   */\n      0x20\n        /* \"#utility.yul\":9839:9902   */\n      tag_233\n        /* \"#utility.yul\":9894:9901   */\n      dup9\n        /* \"#utility.yul\":9885:9891   */\n      dup3\n        /* \"#utility.yul\":9874:9883   */\n      dup10\n        /* \"#utility.yul\":9870:9892   */\n      add\n        /* \"#utility.yul\":9839:9902   */\n      tag_129\n      jump\t// in\n    tag_233:\n        /* \"#utility.yul\":9829:9902   */\n      swap5\n      pop\n        /* \"#utility.yul\":9784:9912   */\n      pop\n        /* \"#utility.yul\":9951:9953   */\n      0x40\n        /* \"#utility.yul\":9977:10041   */\n      tag_234\n        /* \"#utility.yul\":10033:10040   */\n      dup9\n        /* \"#utility.yul\":10024:10030   */\n      dup3\n        /* \"#utility.yul\":10013:10022   */\n      dup10\n        /* \"#utility.yul\":10009:10031   */\n      add\n        /* \"#utility.yul\":9977:10041   */\n      tag_130\n      jump\t// in\n    tag_234:\n        /* \"#utility.yul\":9967:10041   */\n      swap4\n      pop\n        /* \"#utility.yul\":9922:10051   */\n      pop\n        /* \"#utility.yul\":10090:10092   */\n      0x60\n        /* \"#utility.yul\":10116:10180   */\n      tag_235\n        /* \"#utility.yul\":10172:10179   */\n      dup9\n        /* \"#utility.yul\":10163:10169   */\n      dup3\n        /* \"#utility.yul\":10152:10161   */\n      dup10\n        /* \"#utility.yul\":10148:10170   */\n      add\n        /* \"#utility.yul\":10116:10180   */\n      tag_130\n      jump\t// in\n    tag_235:\n        /* \"#utility.yul\":10106:10180   */\n      swap3\n      pop\n        /* \"#utility.yul\":10061:10190   */\n      pop\n        /* \"#utility.yul\":10229:10232   */\n      0x80\n        /* \"#utility.yul\":10256:10319   */\n      tag_236\n        /* \"#utility.yul\":10311:10318   */\n      dup9\n        /* \"#utility.yul\":10302:10308   */\n      dup3\n        /* \"#utility.yul\":10291:10300   */\n      dup10\n        /* \"#utility.yul\":10287:10309   */\n      add\n        /* \"#utility.yul\":10256:10319   */\n      tag_126\n      jump\t// in\n    tag_236:\n        /* \"#utility.yul\":10246:10319   */\n      swap2\n      pop\n        /* \"#utility.yul\":10200:10329   */\n      pop\n        /* \"#utility.yul\":9365:10336   */\n      swap3\n      swap6\n      pop\n      swap3\n      swap6\n      swap1\n      swap4\n      pop\n      jump\t// out\n        /* \"#utility.yul\":10342:10898   */\n    tag_92:\n        /* \"#utility.yul\":10381:10388   */\n      0x00\n        /* \"#utility.yul\":10404:10423   */\n      tag_238\n        /* \"#utility.yul\":10421:10422   */\n      dup3\n        /* \"#utility.yul\":10404:10423   */\n      tag_127\n      jump\t// in\n    tag_238:\n        /* \"#utility.yul\":10399:10423   */\n      swap2\n      pop\n        /* \"#utility.yul\":10437:10456   */\n      tag_239\n        /* \"#utility.yul\":10454:10455   */\n      dup4\n        /* \"#utility.yul\":10437:10456   */\n      tag_127\n      jump\t// in\n    tag_239:\n        /* \"#utility.yul\":10432:10456   */\n      swap3\n      pop\n        /* \"#utility.yul\":10491:10492   */\n      dup3\n        /* \"#utility.yul\":10488:10489   */\n      dup3\n        /* \"#utility.yul\":10484:10493   */\n      mul\n        /* \"#utility.yul\":10513:10542   */\n      tag_240\n        /* \"#utility.yul\":10530:10541   */\n      dup2\n        /* \"#utility.yul\":10513:10542   */\n      tag_127\n      jump\t// in\n    tag_240:\n        /* \"#utility.yul\":10502:10542   */\n      swap2\n      pop\n        /* \"#utility.yul\":10600:10666   */\n      0x8000000000000000000000000000000000000000000000000000000000000000\n        /* \"#utility.yul\":10597:10598   */\n      dup5\n        /* \"#utility.yul\":10594:10667   */\n      eq\n        /* \"#utility.yul\":10590:10591   */\n      0x00\n        /* \"#utility.yul\":10587:10588   */\n      dup5\n        /* \"#utility.yul\":10583:10592   */\n      slt\n        /* \"#utility.yul\":10579:10668   */\n      and\n        /* \"#utility.yul\":10576:10691   */\n      iszero\n      tag_241\n      jumpi\n        /* \"#utility.yul\":10671:10689   */\n      tag_242\n      tag_115\n      jump\t// in\n    tag_242:\n        /* \"#utility.yul\":10576:10691   */\n    tag_241:\n        /* \"#utility.yul\":10841:10842   */\n      dup3\n        /* \"#utility.yul\":10832:10839   */\n      dup3\n        /* \"#utility.yul\":10827:10843   */\n      sdiv\n        /* \"#utility.yul\":10824:10825   */\n      dup5\n        /* \"#utility.yul\":10821:10844   */\n      eq\n        /* \"#utility.yul\":10801:10802   */\n      dup4\n        /* \"#utility.yul\":10794:10803   */\n      iszero\n        /* \"#utility.yul\":10774:10858   */\n      or\n        /* \"#utility.yul\":10751:10891   */\n      tag_243\n      jumpi\n        /* \"#utility.yul\":10871:10889   */\n      tag_244\n      tag_115\n      jump\t// in\n    tag_244:\n        /* \"#utility.yul\":10751:10891   */\n    tag_243:\n        /* \"#utility.yul\":10389:10898   */\n      pop\n        /* \"#utility.yul\":10342:10898   */\n      swap3\n      swap2\n      pop\n      pop\n      jump\t// out\n\n    auxdata: 0xa2646970667358221220ae3e1fe22b4ba6d5881c7c4e24be11abfbd0657ca56b50bf6b2acff1c032cb5164736f6c63430008120033\n}\n",
				"bytecode": {
					"linkReferences": {},
					"object": "60a060405234801561001057600080fd5b503373ffffffffffffffffffffffffffffffffffffffff1660808173ffffffffffffffffffffffffffffffffffffffff1681525050608051610dbc6100676000396000818161014d015261058b0152610dbc6000f3fe6080604052600436106100555760003560e01c80633ccfd60b1461005a57806343626dcc146100715780636b69a5921461007b578063db8e1e62146100a6578063dba6335f146100e3578063dc0d3dff1461010e575b600080fd5b34801561006657600080fd5b5061006f61014b565b005b610079610455565b005b34801561008757600080fd5b50610090610564565b60405161009d9190610792565b60405180910390f35b3480156100b257600080fd5b506100cd60048036038101906100c89190610810565b610571565b6040516100da9190610792565b60405180910390f35b3480156100ef57600080fd5b506100f8610589565b604051610105919061084c565b60405180910390f35b34801561011a57600080fd5b5061013560048036038101906101309190610893565b6105ad565b604051610142919061084c565b60405180910390f35b7f000000000000000000000000000000000000000000000000000000000000000073ffffffffffffffffffffffffffffffffffffffff163373ffffffffffffffffffffffffffffffffffffffff16146101d9576040517f08c379a00000000000000000000000000000000000000000000000000000000081526004016101d09061091d565b60405180910390fd5b60005b6000805490508110156102845760008082815481106101fe576101fd61093d565b5b9060005260206000200160009054906101000a900473ffffffffffffffffffffffffffffffffffffffff1690506000600160008373ffffffffffffffffffffffffffffffffffffffff1673ffffffffffffffffffffffffffffffffffffffff1681526020019081526020016000208190555050808061027c9061099b565b9150506101dc565b50600067ffffffffffffffff8111156102a05761029f6109e3565b5b6040519080825280602002602001820160405280156102ce5781602001602082028036833780820191505090505b50600090805190602001906102e49291906106d2565b503373ffffffffffffffffffffffffffffffffffffffff166108fc479081150290604051600060405180830381858888f1935050505015801561032b573d6000803e3d6000fd5b5060003373ffffffffffffffffffffffffffffffffffffffff166108fc479081150290604051600060405180830381858888f193505050509050806103a5576040517f08c379a000000000000000000000000000000000000000000000000000000000815260040161039c90610a5e565b60405180910390fd5b60003373ffffffffffffffffffffffffffffffffffffffff16476040516103cb90610aaf565b60006040518083038185875af1925050503d8060008114610408576040519150601f19603f3d011682016040523d82523d6000602084013e61040d565b606091505b5050905080610451576040517f08c379a000000000000000000000000000000000000000000000000000000000815260040161044890610a5e565b60405180910390fd5b5050565b6802b5e3af16b1880000610468346105ec565b10156104a9576040517f08c379a00000000000000000000000000000000000000000000000000000000081526004016104a090610b10565b60405180910390fd5b6000339080600181540180825580915050600190039060005260206000200160009091909190916101000a81548173ffffffffffffffffffffffffffffffffffffffff021916908373ffffffffffffffffffffffffffffffffffffffff16021790555034600160003373ffffffffffffffffffffffffffffffffffffffff1673ffffffffffffffffffffffffffffffffffffffff168152602001908152602001600020600082825461055b9190610b30565b92505081905550565b6802b5e3af16b188000081565b60016020528060005260406000206000915090505481565b7f000000000000000000000000000000000000000000000000000000000000000081565b600081815481106105bd57600080fd5b906000526020600020016000915054906101000a900473ffffffffffffffffffffffffffffffffffffffff1681565b6000806105f7610626565b90506000670de0b6b3a764000084836106109190610b64565b61061a9190610bd5565b90508092505050919050565b60008073694aa1769357215de4fac081bf1f309adc325306905060008173ffffffffffffffffffffffffffffffffffffffff1663feaf968c6040518163ffffffff1660e01b815260040160a060405180830381865afa15801561068d573d6000803e3d6000fd5b505050506040513d601f19601f820116820180604052508101906106b19190610c93565b505050915050678ac7230489e80000816106cb9190610d0e565b9250505090565b82805482825590600052602060002090810192821561074b579160200282015b8281111561074a5782518260006101000a81548173ffffffffffffffffffffffffffffffffffffffff021916908373ffffffffffffffffffffffffffffffffffffffff160217905550916020019190600101906106f2565b5b509050610758919061075c565b5090565b5b8082111561077557600081600090555060010161075d565b5090565b6000819050919050565b61078c81610779565b82525050565b60006020820190506107a76000830184610783565b92915050565b600080fd5b600073ffffffffffffffffffffffffffffffffffffffff82169050919050565b60006107dd826107b2565b9050919050565b6107ed816107d2565b81146107f857600080fd5b50565b60008135905061080a816107e4565b92915050565b600060208284031215610826576108256107ad565b5b6000610834848285016107fb565b91505092915050565b610846816107d2565b82525050565b6000602082019050610861600083018461083d565b92915050565b61087081610779565b811461087b57600080fd5b50565b60008135905061088d81610867565b92915050565b6000602082840312156108a9576108a86107ad565b5b60006108b78482850161087e565b91505092915050565b600082825260208201905092915050565b7f6e6f74206f776e65720000000000000000000000000000000000000000000000600082015250565b60006109076009836108c0565b9150610912826108d1565b602082019050919050565b60006020820190508181036000830152610936816108fa565b9050919050565b7f4e487b7100000000000000000000000000000000000000000000000000000000600052603260045260246000fd5b7f4e487b7100000000000000000000000000000000000000000000000000000000600052601160045260246000fd5b60006109a682610779565b91507fffffffffffffffffffffffffffffffffffffffffffffffffffffffffffffffff82036109d8576109d761096c565b5b600182019050919050565b7f4e487b7100000000000000000000000000000000000000000000000000000000600052604160045260246000fd5b7f6661696c65640000000000000000000000000000000000000000000000000000600082015250565b6000610a486006836108c0565b9150610a5382610a12565b602082019050919050565b60006020820190508181036000830152610a7781610a3b565b9050919050565b600081905092915050565b50565b6000610a99600083610a7e565b9150610aa482610a89565b600082019050919050565b6000610aba82610a8c565b9150819050919050565b7f4e6f7420456e6f75676800000000000000000000000000000000000000000000600082015250565b6000610afa600a836108c0565b9150610b0582610ac4565b602082019050919050565b60006020820190508181036000830152610b2981610aed565b9050919050565b6000610b3b82610779565b9150610b4683610779565b9250828201905080821115610b5e57610b5d61096c565b5b92915050565b6000610b6f82610779565b9150610b7a83610779565b9250828202610b8881610779565b91508282048414831517610b9f57610b9e61096c565b5b5092915050565b7f4e487b7100000000000000000000000000000000000000000000000000000000600052601260045260246000fd5b6000610be082610779565b9150610beb83610779565b925082610bfb57610bfa610ba6565b5b828204905092915050565b600069ffffffffffffffffffff82169050919050565b610c2581610c06565b8114610c3057600080fd5b50565b600081519050610c4281610c1c565b92915050565b6000819050919050565b610c5b81610c48565b8114610c6657600080fd5b50565b600081519050610c7881610c52565b92915050565b600081519050610c8d81610867565b92915050565b600080600080600060a08688031215610caf57610cae6107ad565b5b6000610cbd88828901610c33565b9550506020610cce88828901610c69565b9450506040610cdf88828901610c7e565b9350506060610cf088828901610c7e565b9250506080610d0188828901610c33565b9150509295509295909350565b6000610d1982610c48565b9150610d2483610c48565b9250828202610d3281610c48565b91507f80000000000000000000000000000000000000000000000000000000000000008414600084121615610d6a57610d6961096c565b5b8282058414831517610d7f57610d7e61096c565b5b509291505056fea2646970667358221220ae3e1fe22b4ba6d5881c7c4e24be11abfbd0657ca56b50bf6b2acff1c032cb5164736f6c63430008120033",
					"opcodes": "PUSH1 0xA0 PUSH1 0x40 MSTORE CALLVALUE DUP1 ISZERO PUSH2 0x10 JUMPI PUSH1 0x0 DUP1 REVERT JUMPDEST POP CALLER PUSH20 0xFFFFFFFFFFFFFFFFFFFFFFFFFFFFFFFFFFFFFFFF AND PUSH1 0x80 DUP2 PUSH20 0xFFFFFFFFFFFFFFFFFFFFFFFFFFFFFFFFFFFFFFFF AND DUP2 MSTORE POP POP PUSH1 0x80 MLOAD PUSH2 0xDBC PUSH2 0x67 PUSH1 0x0 CODECOPY PUSH1 0x0 DUP2 DUP2 PUSH2 0x14D ADD MSTORE PUSH2 0x58B ADD MSTORE PUSH2 0xDBC PUSH1 0x0 RETURN INVALID PUSH1 0x80 PUSH1 0x40 MSTORE PUSH1 0x4 CALLDATASIZE LT PUSH2 0x55 JUMPI PUSH1 0x0 CALLDATALOAD PUSH1 0xE0 SHR DUP1 PUSH4 0x3CCFD60B EQ PUSH2 0x5A JUMPI DUP1 PUSH4 0x43626DCC EQ PUSH2 0x71 JUMPI DUP1 PUSH4 0x6B69A592 EQ PUSH2 0x7B JUMPI DUP1 PUSH4 0xDB8E1E62 EQ PUSH2 0xA6 JUMPI DUP1 PUSH4 0xDBA6335F EQ PUSH2 0xE3 JUMPI DUP1 PUSH4 0xDC0D3DFF EQ PUSH2 0x10E JUMPI JUMPDEST PUSH1 0x0 DUP1 REVERT JUMPDEST CALLVALUE DUP1 ISZERO PUSH2 0x66 JUMPI PUSH1 0x0 DUP1 REVERT JUMPDEST POP PUSH2 0x6F PUSH2 0x14B JUMP JUMPDEST STOP JUMPDEST PUSH2 0x79 PUSH2 0x455 JUMP JUMPDEST STOP JUMPDEST CALLVALUE DUP1 ISZERO PUSH2 0x87 JUMPI PUSH1 0x0 DUP1 REVERT JUMPDEST POP PUSH2 0x90 PUSH2 0x564 JUMP JUMPDEST PUSH1 0x40 MLOAD PUSH2 0x9D SWAP2 SWAP1 PUSH2 0x792 JUMP JUMPDEST PUSH1 0x40 MLOAD DUP1 SWAP2 SUB SWAP1 RETURN JUMPDEST CALLVALUE DUP1 ISZERO PUSH2 0xB2 JUMPI PUSH1 0x0 DUP1 REVERT JUMPDEST POP PUSH2 0xCD PUSH1 0x4 DUP1 CALLDATASIZE SUB DUP2 ADD SWAP1 PUSH2 0xC8 SWAP2 SWAP1 PUSH2 0x810 JUMP JUMPDEST PUSH2 0x571 JUMP JUMPDEST PUSH1 0x40 MLOAD PUSH2 0xDA SWAP2 SWAP1 PUSH2 0x792 JUMP JUMPDEST PUSH1 0x40 MLOAD DUP1 SWAP2 SUB SWAP1 RETURN JUMPDEST CALLVALUE DUP1 ISZERO PUSH2 0xEF JUMPI PUSH1 0x0 DUP1 REVERT JUMPDEST POP PUSH2 0xF8 PUSH2 0x589 JUMP JUMPDEST PUSH1 0x40 MLOAD PUSH2 0x105 SWAP2 SWAP1 PUSH2 0x84C JUMP JUMPDEST PUSH1 0x40 MLOAD DUP1 SWAP2 SUB SWAP1 RETURN JUMPDEST CALLVALUE DUP1 ISZERO PUSH2 0x11A JUMPI PUSH1 0x0 DUP1 REVERT JUMPDEST POP PUSH2 0x135 PUSH1 0x4 DUP1 CALLDATASIZE SUB DUP2 ADD SWAP1 PUSH2 0x130 SWAP2 SWAP1 PUSH2 0x893 JUMP JUMPDEST PUSH2 0x5AD JUMP JUMPDEST PUSH1 0x40 MLOAD PUSH2 0x142 SWAP2 SWAP1 PUSH2 0x84C JUMP JUMPDEST PUSH1 0x40 MLOAD DUP1 SWAP2 SUB SWAP1 RETURN JUMPDEST PUSH32 0x0 PUSH20 0xFFFFFFFFFFFFFFFFFFFFFFFFFFFFFFFFFFFFFFFF AND CALLER PUSH20 0xFFFFFFFFFFFFFFFFFFFFFFFFFFFFFFFFFFFFFFFF AND EQ PUSH2 0x1D9 JUMPI PUSH1 0x40 MLOAD PUSH32 0x8C379A000000000000000000000000000000000000000000000000000000000 DUP2 MSTORE PUSH1 0x4 ADD PUSH2 0x1D0 SWAP1 PUSH2 0x91D JUMP JUMPDEST PUSH1 0x40 MLOAD DUP1 SWAP2 SUB SWAP1 REVERT JUMPDEST PUSH1 0x0 JUMPDEST PUSH1 0x0 DUP1 SLOAD SWAP1 POP DUP2 LT ISZERO PUSH2 0x284 JUMPI PUSH1 0x0 DUP1 DUP3 DUP2 SLOAD DUP2 LT PUSH2 0x1FE JUMPI PUSH2 0x1FD PUSH2 0x93D JUMP JUMPDEST JUMPDEST SWAP1 PUSH1 0x0 MSTORE PUSH1 0x20 PUSH1 0x0 KECCAK256 ADD PUSH1 0x0 SWAP1 SLOAD SWAP1 PUSH2 0x100 EXP SWAP1 DIV PUSH20 0xFFFFFFFFFFFFFFFFFFFFFFFFFFFFFFFFFFFFFFFF AND SWAP1 POP PUSH1 0x0 PUSH1 0x1 PUSH1 0x0 DUP4 PUSH20 0xFFFFFFFFFFFFFFFFFFFFFFFFFFFFFFFFFFFFFFFF AND PUSH20 0xFFFFFFFFFFFFFFFFFFFFFFFFFFFFFFFFFFFFFFFF AND DUP2 MSTORE PUSH1 0x20 ADD SWAP1 DUP2 MSTORE PUSH1 0x20 ADD PUSH1 0x0 KECCAK256 DUP2 SWAP1 SSTORE POP POP DUP1 DUP1 PUSH2 0x27C SWAP1 PUSH2 0x99B JUMP JUMPDEST SWAP2 POP POP PUSH2 0x1DC JUMP JUMPDEST POP PUSH1 0x0 PUSH8 0xFFFFFFFFFFFFFFFF DUP2 GT ISZERO PUSH2 0x2A0 JUMPI PUSH2 0x29F PUSH2 0x9E3 JUMP JUMPDEST JUMPDEST PUSH1 0x40 MLOAD SWAP1 DUP1 DUP3 MSTORE DUP1 PUSH1 0x20 MUL PUSH1 0x20 ADD DUP3 ADD PUSH1 0x40 MSTORE DUP1 ISZERO PUSH2 0x2CE JUMPI DUP2 PUSH1 0x20 ADD PUSH1 0x20 DUP3 MUL DUP1 CALLDATASIZE DUP4 CALLDATACOPY DUP1 DUP3 ADD SWAP2 POP POP SWAP1 POP JUMPDEST POP PUSH1 0x0 SWAP1 DUP1 MLOAD SWAP1 PUSH1 0x20 ADD SWAP1 PUSH2 0x2E4 SWAP3 SWAP2 SWAP1 PUSH2 0x6D2 JUMP JUMPDEST POP CALLER PUSH20 0xFFFFFFFFFFFFFFFFFFFFFFFFFFFFFFFFFFFFFFFF AND PUSH2 0x8FC SELFBALANCE SWAP1 DUP2 ISZERO MUL SWAP1 PUSH1 0x40 MLOAD PUSH1 0x0 PUSH1 0x40 MLOAD DUP1 DUP4 SUB DUP2 DUP6 DUP9 DUP9 CALL SWAP4 POP POP POP POP ISZERO DUP1 ISZERO PUSH2 0x32B JUMPI RETURNDATASIZE PUSH1 0x0 DUP1 RETURNDATACOPY RETURNDATASIZE PUSH1 0x0 REVERT JUMPDEST POP PUSH1 0x0 CALLER PUSH20 0xFFFFFFFFFFFFFFFFFFFFFFFFFFFFFFFFFFFFFFFF AND PUSH2 0x8FC SELFBALANCE SWAP1 DUP2 ISZERO MUL SWAP1 PUSH1 0x40 MLOAD PUSH1 0x0 PUSH1 0x40 MLOAD DUP1 DUP4 SUB DUP2 DUP6 DUP9 DUP9 CALL SWAP4 POP POP POP POP SWAP1 POP DUP1 PUSH2 0x3A5 JUMPI PUSH1 0x40 MLOAD PUSH32 0x8C379A000000000000000000000000000000000000000000000000000000000 DUP2 MSTORE PUSH1 0x4 ADD PUSH2 0x39C SWAP1 PUSH2 0xA5E JUMP JUMPDEST PUSH1 0x40 MLOAD DUP1 SWAP2 SUB SWAP1 REVERT JUMPDEST PUSH1 0x0 CALLER PUSH20 0xFFFFFFFFFFFFFFFFFFFFFFFFFFFFFFFFFFFFFFFF AND SELFBALANCE PUSH1 0x40 MLOAD PUSH2 0x3CB SWAP1 PUSH2 0xAAF JUMP JUMPDEST PUSH1 0x0 PUSH1 0x40 MLOAD DUP1 DUP4 SUB DUP2 DUP6 DUP8 GAS CALL SWAP3 POP POP POP RETURNDATASIZE DUP1 PUSH1 0x0 DUP2 EQ PUSH2 0x408 JUMPI PUSH1 0x40 MLOAD SWAP2 POP PUSH1 0x1F NOT PUSH1 0x3F RETURNDATASIZE ADD AND DUP3 ADD PUSH1 0x40 MSTORE RETURNDATASIZE DUP3 MSTORE RETURNDATASIZE PUSH1 0x0 PUSH1 0x20 DUP5 ADD RETURNDATACOPY PUSH2 0x40D JUMP JUMPDEST PUSH1 0x60 SWAP2 POP JUMPDEST POP POP SWAP1 POP DUP1 PUSH2 0x451 JUMPI PUSH1 0x40 MLOAD PUSH32 0x8C379A000000000000000000000000000000000000000000000000000000000 DUP2 MSTORE PUSH1 0x4 ADD PUSH2 0x448 SWAP1 PUSH2 0xA5E JUMP JUMPDEST PUSH1 0x40 MLOAD DUP1 SWAP2 SUB SWAP1 REVERT JUMPDEST POP POP JUMP JUMPDEST PUSH9 0x2B5E3AF16B1880000 PUSH2 0x468 CALLVALUE PUSH2 0x5EC JUMP JUMPDEST LT ISZERO PUSH2 0x4A9 JUMPI PUSH1 0x40 MLOAD PUSH32 0x8C379A000000000000000000000000000000000000000000000000000000000 DUP2 MSTORE PUSH1 0x4 ADD PUSH2 0x4A0 SWAP1 PUSH2 0xB10 JUMP JUMPDEST PUSH1 0x40 MLOAD DUP1 SWAP2 SUB SWAP1 REVERT JUMPDEST PUSH1 0x0 CALLER SWAP1 DUP1 PUSH1 0x1 DUP2 SLOAD ADD DUP1 DUP3 SSTORE DUP1 SWAP2 POP POP PUSH1 0x1 SWAP1 SUB SWAP1 PUSH1 0x0 MSTORE PUSH1 0x20 PUSH1 0x0 KECCAK256 ADD PUSH1 0x0 SWAP1 SWAP2 SWAP1 SWAP2 SWAP1 SWAP2 PUSH2 0x100 EXP DUP2 SLOAD DUP2 PUSH20 0xFFFFFFFFFFFFFFFFFFFFFFFFFFFFFFFFFFFFFFFF MUL NOT AND SWAP1 DUP4 PUSH20 0xFFFFFFFFFFFFFFFFFFFFFFFFFFFFFFFFFFFFFFFF AND MUL OR SWAP1 SSTORE POP CALLVALUE PUSH1 0x1 PUSH1 0x0 CALLER PUSH20 0xFFFFFFFFFFFFFFFFFFFFFFFFFFFFFFFFFFFFFFFF AND PUSH20 0xFFFFFFFFFFFFFFFFFFFFFFFFFFFFFFFFFFFFFFFF AND DUP2 MSTORE PUSH1 0x20 ADD SWAP1 DUP2 MSTORE PUSH1 0x20 ADD PUSH1 0x0 KECCAK256 PUSH1 0x0 DUP3 DUP3 SLOAD PUSH2 0x55B SWAP2 SWAP1 PUSH2 0xB30 JUMP JUMPDEST SWAP3 POP POP DUP2 SWAP1 SSTORE POP JUMP JUMPDEST PUSH9 0x2B5E3AF16B1880000 DUP2 JUMP JUMPDEST PUSH1 0x1 PUSH1 0x20 MSTORE DUP1 PUSH1 0x0 MSTORE PUSH1 0x40 PUSH1 0x0 KECCAK256 PUSH1 0x0 SWAP2 POP SWAP1 POP SLOAD DUP2 JUMP JUMPDEST PUSH32 0x0 DUP2 JUMP JUMPDEST PUSH1 0x0 DUP2 DUP2 SLOAD DUP2 LT PUSH2 0x5BD JUMPI PUSH1 0x0 DUP1 REVERT JUMPDEST SWAP1 PUSH1 0x0 MSTORE PUSH1 0x20 PUSH1 0x0 KECCAK256 ADD PUSH1 0x0 SWAP2 POP SLOAD SWAP1 PUSH2 0x100 EXP SWAP1 DIV PUSH20 0xFFFFFFFFFFFFFFFFFFFFFFFFFFFFFFFFFFFFFFFF AND DUP2 JUMP JUMPDEST PUSH1 0x0 DUP1 PUSH2 0x5F7 PUSH2 0x626 JUMP JUMPDEST SWAP1 POP PUSH1 0x0 PUSH8 0xDE0B6B3A7640000 DUP5 DUP4 PUSH2 0x610 SWAP2 SWAP1 PUSH2 0xB64 JUMP JUMPDEST PUSH2 0x61A SWAP2 SWAP1 PUSH2 0xBD5 JUMP JUMPDEST SWAP1 POP DUP1 SWAP3 POP POP POP SWAP2 SWAP1 POP JUMP JUMPDEST PUSH1 0x0 DUP1 PUSH20 0x694AA1769357215DE4FAC081BF1F309ADC325306 SWAP1 POP PUSH1 0x0 DUP2 PUSH20 0xFFFFFFFFFFFFFFFFFFFFFFFFFFFFFFFFFFFFFFFF AND PUSH4 0xFEAF968C PUSH1 0x40 MLOAD DUP2 PUSH4 0xFFFFFFFF AND PUSH1 0xE0 SHL DUP2 MSTORE PUSH1 0x4 ADD PUSH1 0xA0 PUSH1 0x40 MLOAD DUP1 DUP4 SUB DUP2 DUP7 GAS STATICCALL ISZERO DUP1 ISZERO PUSH2 0x68D JUMPI RETURNDATASIZE PUSH1 0x0 DUP1 RETURNDATACOPY RETURNDATASIZE PUSH1 0x0 REVERT JUMPDEST POP POP POP POP PUSH1 0x40 MLOAD RETURNDATASIZE PUSH1 0x1F NOT PUSH1 0x1F DUP3 ADD AND DUP3 ADD DUP1 PUSH1 0x40 MSTORE POP DUP2 ADD SWAP1 PUSH2 0x6B1 SWAP2 SWAP1 PUSH2 0xC93 JUMP JUMPDEST POP POP POP SWAP2 POP POP PUSH8 0x8AC7230489E80000 DUP2 PUSH2 0x6CB SWAP2 SWAP1 PUSH2 0xD0E JUMP JUMPDEST SWAP3 POP POP POP SWAP1 JUMP JUMPDEST DUP3 DUP1 SLOAD DUP3 DUP3 SSTORE SWAP1 PUSH1 0x0 MSTORE PUSH1 0x20 PUSH1 0x0 KECCAK256 SWAP1 DUP2 ADD SWAP3 DUP3 ISZERO PUSH2 0x74B JUMPI SWAP2 PUSH1 0x20 MUL DUP3 ADD JUMPDEST DUP3 DUP2 GT ISZERO PUSH2 0x74A JUMPI DUP3 MLOAD DUP3 PUSH1 0x0 PUSH2 0x100 EXP DUP2 SLOAD DUP2 PUSH20 0xFFFFFFFFFFFFFFFFFFFFFFFFFFFFFFFFFFFFFFFF MUL NOT AND SWAP1 DUP4 PUSH20 0xFFFFFFFFFFFFFFFFFFFFFFFFFFFFFFFFFFFFFFFF AND MUL OR SWAP1 SSTORE POP SWAP2 PUSH1 0x20 ADD SWAP2 SWAP1 PUSH1 0x1 ADD SWAP1 PUSH2 0x6F2 JUMP JUMPDEST JUMPDEST POP SWAP1 POP PUSH2 0x758 SWAP2 SWAP1 PUSH2 0x75C JUMP JUMPDEST POP SWAP1 JUMP JUMPDEST JUMPDEST DUP1 DUP3 GT ISZERO PUSH2 0x775 JUMPI PUSH1 0x0 DUP2 PUSH1 0x0 SWAP1 SSTORE POP PUSH1 0x1 ADD PUSH2 0x75D JUMP JUMPDEST POP SWAP1 JUMP JUMPDEST PUSH1 0x0 DUP2 SWAP1 POP SWAP2 SWAP1 POP JUMP JUMPDEST PUSH2 0x78C DUP2 PUSH2 0x779 JUMP JUMPDEST DUP3 MSTORE POP POP JUMP JUMPDEST PUSH1 0x0 PUSH1 0x20 DUP3 ADD SWAP1 POP PUSH2 0x7A7 PUSH1 0x0 DUP4 ADD DUP5 PUSH2 0x783 JUMP JUMPDEST SWAP3 SWAP2 POP POP JUMP JUMPDEST PUSH1 0x0 DUP1 REVERT JUMPDEST PUSH1 0x0 PUSH20 0xFFFFFFFFFFFFFFFFFFFFFFFFFFFFFFFFFFFFFFFF DUP3 AND SWAP1 POP SWAP2 SWAP1 POP JUMP JUMPDEST PUSH1 0x0 PUSH2 0x7DD DUP3 PUSH2 0x7B2 JUMP JUMPDEST SWAP1 POP SWAP2 SWAP1 POP JUMP JUMPDEST PUSH2 0x7ED DUP2 PUSH2 0x7D2 JUMP JUMPDEST DUP2 EQ PUSH2 0x7F8 JUMPI PUSH1 0x0 DUP1 REVERT JUMPDEST POP JUMP JUMPDEST PUSH1 0x0 DUP2 CALLDATALOAD SWAP1 POP PUSH2 0x80A DUP2 PUSH2 0x7E4 JUMP JUMPDEST SWAP3 SWAP2 POP POP JUMP JUMPDEST PUSH1 0x0 PUSH1 0x20 DUP3 DUP5 SUB SLT ISZERO PUSH2 0x826 JUMPI PUSH2 0x825 PUSH2 0x7AD JUMP JUMPDEST JUMPDEST PUSH1 0x0 PUSH2 0x834 DUP5 DUP3 DUP6 ADD PUSH2 0x7FB JUMP JUMPDEST SWAP2 POP POP SWAP3 SWAP2 POP POP JUMP JUMPDEST PUSH2 0x846 DUP2 PUSH2 0x7D2 JUMP JUMPDEST DUP3 MSTORE POP POP JUMP JUMPDEST PUSH1 0x0 PUSH1 0x20 DUP3 ADD SWAP1 POP PUSH2 0x861 PUSH1 0x0 DUP4 ADD DUP5 PUSH2 0x83D JUMP JUMPDEST SWAP3 SWAP2 POP POP JUMP JUMPDEST PUSH2 0x870 DUP2 PUSH2 0x779 JUMP JUMPDEST DUP2 EQ PUSH2 0x87B JUMPI PUSH1 0x0 DUP1 REVERT JUMPDEST POP JUMP JUMPDEST PUSH1 0x0 DUP2 CALLDATALOAD SWAP1 POP PUSH2 0x88D DUP2 PUSH2 0x867 JUMP JUMPDEST SWAP3 SWAP2 POP POP JUMP JUMPDEST PUSH1 0x0 PUSH1 0x20 DUP3 DUP5 SUB SLT ISZERO PUSH2 0x8A9 JUMPI PUSH2 0x8A8 PUSH2 0x7AD JUMP JUMPDEST JUMPDEST PUSH1 0x0 PUSH2 0x8B7 DUP5 DUP3 DUP6 ADD PUSH2 0x87E JUMP JUMPDEST SWAP2 POP POP SWAP3 SWAP2 POP POP JUMP JUMPDEST PUSH1 0x0 DUP3 DUP3 MSTORE PUSH1 0x20 DUP3 ADD SWAP1 POP SWAP3 SWAP2 POP POP JUMP JUMPDEST PUSH32 0x6E6F74206F776E65720000000000000000000000000000000000000000000000 PUSH1 0x0 DUP3 ADD MSTORE POP JUMP JUMPDEST PUSH1 0x0 PUSH2 0x907 PUSH1 0x9 DUP4 PUSH2 0x8C0 JUMP JUMPDEST SWAP2 POP PUSH2 0x912 DUP3 PUSH2 0x8D1 JUMP JUMPDEST PUSH1 0x20 DUP3 ADD SWAP1 POP SWAP2 SWAP1 POP JUMP JUMPDEST PUSH1 0x0 PUSH1 0x20 DUP3 ADD SWAP1 POP DUP2 DUP2 SUB PUSH1 0x0 DUP4 ADD MSTORE PUSH2 0x936 DUP2 PUSH2 0x8FA JUMP JUMPDEST SWAP1 POP SWAP2 SWAP1 POP JUMP JUMPDEST PUSH32 0x4E487B7100000000000000000000000000000000000000000000000000000000 PUSH1 0x0 MSTORE PUSH1 0x32 PUSH1 0x4 MSTORE PUSH1 0x24 PUSH1 0x0 REVERT JUMPDEST PUSH32 0x4E487B7100000000000000000000000000000000000000000000000000000000 PUSH1 0x0 MSTORE PUSH1 0x11 PUSH1 0x4 MSTORE PUSH1 0x24 PUSH1 0x0 REVERT JUMPDEST PUSH1 0x0 PUSH2 0x9A6 DUP3 PUSH2 0x779 JUMP JUMPDEST SWAP2 POP PUSH32 0xFFFFFFFFFFFFFFFFFFFFFFFFFFFFFFFFFFFFFFFFFFFFFFFFFFFFFFFFFFFFFFFF DUP3 SUB PUSH2 0x9D8 JUMPI PUSH2 0x9D7 PUSH2 0x96C JUMP JUMPDEST JUMPDEST PUSH1 0x1 DUP3 ADD SWAP1 POP SWAP2 SWAP1 POP JUMP JUMPDEST PUSH32 0x4E487B7100000000000000000000000000000000000000000000000000000000 PUSH1 0x0 MSTORE PUSH1 0x41 PUSH1 0x4 MSTORE PUSH1 0x24 PUSH1 0x0 REVERT JUMPDEST PUSH32 0x6661696C65640000000000000000000000000000000000000000000000000000 PUSH1 0x0 DUP3 ADD MSTORE POP JUMP JUMPDEST PUSH1 0x0 PUSH2 0xA48 PUSH1 0x6 DUP4 PUSH2 0x8C0 JUMP JUMPDEST SWAP2 POP PUSH2 0xA53 DUP3 PUSH2 0xA12 JUMP JUMPDEST PUSH1 0x20 DUP3 ADD SWAP1 POP SWAP2 SWAP1 POP JUMP JUMPDEST PUSH1 0x0 PUSH1 0x20 DUP3 ADD SWAP1 POP DUP2 DUP2 SUB PUSH1 0x0 DUP4 ADD MSTORE PUSH2 0xA77 DUP2 PUSH2 0xA3B JUMP JUMPDEST SWAP1 POP SWAP2 SWAP1 POP JUMP JUMPDEST PUSH1 0x0 DUP2 SWAP1 POP SWAP3 SWAP2 POP POP JUMP JUMPDEST POP JUMP JUMPDEST PUSH1 0x0 PUSH2 0xA99 PUSH1 0x0 DUP4 PUSH2 0xA7E JUMP JUMPDEST SWAP2 POP PUSH2 0xAA4 DUP3 PUSH2 0xA89 JUMP JUMPDEST PUSH1 0x0 DUP3 ADD SWAP1 POP SWAP2 SWAP1 POP JUMP JUMPDEST PUSH1 0x0 PUSH2 0xABA DUP3 PUSH2 0xA8C JUMP JUMPDEST SWAP2 POP DUP2 SWAP1 POP SWAP2 SWAP1 POP JUMP JUMPDEST PUSH32 0x4E6F7420456E6F75676800000000000000000000000000000000000000000000 PUSH1 0x0 DUP3 ADD MSTORE POP JUMP JUMPDEST PUSH1 0x0 PUSH2 0xAFA PUSH1 0xA DUP4 PUSH2 0x8C0 JUMP JUMPDEST SWAP2 POP PUSH2 0xB05 DUP3 PUSH2 0xAC4 JUMP JUMPDEST PUSH1 0x20 DUP3 ADD SWAP1 POP SWAP2 SWAP1 POP JUMP JUMPDEST PUSH1 0x0 PUSH1 0x20 DUP3 ADD SWAP1 POP DUP2 DUP2 SUB PUSH1 0x0 DUP4 ADD MSTORE PUSH2 0xB29 DUP2 PUSH2 0xAED JUMP JUMPDEST SWAP1 POP SWAP2 SWAP1 POP JUMP JUMPDEST PUSH1 0x0 PUSH2 0xB3B DUP3 PUSH2 0x779 JUMP JUMPDEST SWAP2 POP PUSH2 0xB46 DUP4 PUSH2 0x779 JUMP JUMPDEST SWAP3 POP DUP3 DUP3 ADD SWAP1 POP DUP1 DUP3 GT ISZERO PUSH2 0xB5E JUMPI PUSH2 0xB5D PUSH2 0x96C JUMP JUMPDEST JUMPDEST SWAP3 SWAP2 POP POP JUMP JUMPDEST PUSH1 0x0 PUSH2 0xB6F DUP3 PUSH2 0x779 JUMP JUMPDEST SWAP2 POP PUSH2 0xB7A DUP4 PUSH2 0x779 JUMP JUMPDEST SWAP3 POP DUP3 DUP3 MUL PUSH2 0xB88 DUP2 PUSH2 0x779 JUMP JUMPDEST SWAP2 POP DUP3 DUP3 DIV DUP5 EQ DUP4 ISZERO OR PUSH2 0xB9F JUMPI PUSH2 0xB9E PUSH2 0x96C JUMP JUMPDEST JUMPDEST POP SWAP3 SWAP2 POP POP JUMP JUMPDEST PUSH32 0x4E487B7100000000000000000000000000000000000000000000000000000000 PUSH1 0x0 MSTORE PUSH1 0x12 PUSH1 0x4 MSTORE PUSH1 0x24 PUSH1 0x0 REVERT JUMPDEST PUSH1 0x0 PUSH2 0xBE0 DUP3 PUSH2 0x779 JUMP JUMPDEST SWAP2 POP PUSH2 0xBEB DUP4 PUSH2 0x779 JUMP JUMPDEST SWAP3 POP DUP3 PUSH2 0xBFB JUMPI PUSH2 0xBFA PUSH2 0xBA6 JUMP JUMPDEST JUMPDEST DUP3 DUP3 DIV SWAP1 POP SWAP3 SWAP2 POP POP JUMP JUMPDEST PUSH1 0x0 PUSH10 0xFFFFFFFFFFFFFFFFFFFF DUP3 AND SWAP1 POP SWAP2 SWAP1 POP JUMP JUMPDEST PUSH2 0xC25 DUP2 PUSH2 0xC06 JUMP JUMPDEST DUP2 EQ PUSH2 0xC30 JUMPI PUSH1 0x0 DUP1 REVERT JUMPDEST POP JUMP JUMPDEST PUSH1 0x0 DUP2 MLOAD SWAP1 POP PUSH2 0xC42 DUP2 PUSH2 0xC1C JUMP JUMPDEST SWAP3 SWAP2 POP POP JUMP JUMPDEST PUSH1 0x0 DUP2 SWAP1 POP SWAP2 SWAP1 POP JUMP JUMPDEST PUSH2 0xC5B DUP2 PUSH2 0xC48 JUMP JUMPDEST DUP2 EQ PUSH2 0xC66 JUMPI PUSH1 0x0 DUP1 REVERT JUMPDEST POP JUMP JUMPDEST PUSH1 0x0 DUP2 MLOAD SWAP1 POP PUSH2 0xC78 DUP2 PUSH2 0xC52 JUMP JUMPDEST SWAP3 SWAP2 POP POP JUMP JUMPDEST PUSH1 0x0 DUP2 MLOAD SWAP1 POP PUSH2 0xC8D DUP2 PUSH2 0x867 JUMP JUMPDEST SWAP3 SWAP2 POP POP JUMP JUMPDEST PUSH1 0x0 DUP1 PUSH1 0x0 DUP1 PUSH1 0x0 PUSH1 0xA0 DUP7 DUP9 SUB SLT ISZERO PUSH2 0xCAF JUMPI PUSH2 0xCAE PUSH2 0x7AD JUMP JUMPDEST JUMPDEST PUSH1 0x0 PUSH2 0xCBD DUP9 DUP3 DUP10 ADD PUSH2 0xC33 JUMP JUMPDEST SWAP6 POP POP PUSH1 0x20 PUSH2 0xCCE DUP9 DUP3 DUP10 ADD PUSH2 0xC69 JUMP JUMPDEST SWAP5 POP POP PUSH1 0x40 PUSH2 0xCDF DUP9 DUP3 DUP10 ADD PUSH2 0xC7E JUMP JUMPDEST SWAP4 POP POP PUSH1 0x60 PUSH2 0xCF0 DUP9 DUP3 DUP10 ADD PUSH2 0xC7E JUMP JUMPDEST SWAP3 POP POP PUSH1 0x80 PUSH2 0xD01 DUP9 DUP3 DUP10 ADD PUSH2 0xC33 JUMP JUMPDEST SWAP2 POP POP SWAP3 SWAP6 POP SWAP3 SWAP6 SWAP1 SWAP4 POP JUMP JUMPDEST PUSH1 0x0 PUSH2 0xD19 DUP3 PUSH2 0xC48 JUMP JUMPDEST SWAP2 POP PUSH2 0xD24 DUP4 PUSH2 0xC48 JUMP JUMPDEST SWAP3 POP DUP3 DUP3 MUL PUSH2 0xD32 DUP2 PUSH2 0xC48 JUMP JUMPDEST SWAP2 POP PUSH32 0x8000000000000000000000000000000000000000000000000000000000000000 DUP5 EQ PUSH1 0x0 DUP5 SLT AND ISZERO PUSH2 0xD6A JUMPI PUSH2 0xD69 PUSH2 0x96C JUMP JUMPDEST JUMPDEST DUP3 DUP3 SDIV DUP5 EQ DUP4 ISZERO OR PUSH2 0xD7F JUMPI PUSH2 0xD7E PUSH2 0x96C JUMP JUMPDEST JUMPDEST POP SWAP3 SWAP2 POP POP JUMP INVALID LOG2 PUSH5 0x6970667358 0x22 SLT KECCAK256 0xAE RETURNDATACOPY 0x1F 0xE2 0x2B 0x4B 0xA6 0xD5 DUP9 SHR PUSH29 0x4E24BE11ABFBD0657CA56B50BF6B2ACFF1C032CB5164736F6C63430008 SLT STOP CALLER "
				},
				"gasEstimates": {
					"creation": {
						"codeDepositCost": "703200",
						"executionCost": "infinite",
						"totalCost": "infinite"
					},
					"external": {
						"FundMe()": "infinite",
						"MINIMUM_USD()": "351",
						"amountToNumber(address)": "2858",
						"funders(uint256)": "5044",
						"i_owner()": "infinite",
						"withdraw()": "infinite"
					}
				},
				"methodIdentifiers": {
					"FundMe()": "43626dcc",
					"MINIMUM_USD()": "6b69a592",
					"amountToNumber(address)": "db8e1e62",
					"funders(uint256)": "dc0d3dff",
					"i_owner()": "dba6335f",
					"withdraw()": "3ccfd60b"
				}
			},
			"storageLayout": {
				"storage": [
					{
						"astId": 62,
						"contract": "contracts/CreditMe.sol:CreditMe",
						"label": "funders",
						"offset": 0,
						"slot": "0",
						"type": "t_array(t_address)dyn_storage"
					},
					{
						"astId": 66,
						"contract": "contracts/CreditMe.sol:CreditMe",
						"label": "amountToNumber",
						"offset": 0,
						"slot": "1",
						"type": "t_mapping(t_address,t_uint256)"
					}
				],
				"types": {
					"t_address": {
						"encoding": "inplace",
						"label": "address",
						"numberOfBytes": "20"
					},
					"t_array(t_address)dyn_storage": {
						"base": "t_address",
						"encoding": "dynamic_array",
						"label": "address[]",
						"numberOfBytes": "32"
					},
					"t_mapping(t_address,t_uint256)": {
						"encoding": "mapping",
						"key": "t_address",
						"label": "mapping(address => uint256)",
						"numberOfBytes": "32",
						"value": "t_uint256"
					},
					"t_uint256": {
						"encoding": "inplace",
						"label": "uint256",
						"numberOfBytes": "32"
					}
				}
			},
			"userdoc": {
				"kind": "user",
				"methods": {},
				"version": 1
			}
		}
	}
}