{
	"contracts/Test.sol": {
		"Test": {
			"abi": [
				{
					"inputs": [
						{
							"internalType": "address",
							"name": "",
							"type": "address"
						}
					],
					"name": "addressToFunders",
					"outputs": [
						{
							"internalType": "uint256",
							"name": "",
							"type": "uint256"
						}
					],
					"stateMutability": "view",
					"type": "function"
				},
				{
					"inputs": [],
					"name": "fundMe",
					"outputs": [],
					"stateMutability": "payable",
					"type": "function"
				},
				{
					"inputs": [
						{
							"internalType": "uint256",
							"name": "",
							"type": "uint256"
						}
					],
					"name": "funders",
					"outputs": [
						{
							"internalType": "address",
							"name": "",
							"type": "address"
						}
					],
					"stateMutability": "view",
					"type": "function"
				},
				{
					"inputs": [],
					"name": "getPrice",
					"outputs": [
						{
							"internalType": "uint256",
							"name": "",
							"type": "uint256"
						}
					],
					"stateMutability": "view",
					"type": "function"
				},
				{
					"inputs": [],
					"name": "getVersion",
					"outputs": [
						{
							"internalType": "uint256",
							"name": "",
							"type": "uint256"
						}
					],
					"stateMutability": "view",
					"type": "function"
				},
				{
					"inputs": [
						{
							"internalType": "uint256",
							"name": "ethAmount",
							"type": "uint256"
						}
					],
					"name": "priceConverter",
					"outputs": [
						{
							"internalType": "uint256",
							"name": "",
							"type": "uint256"
						}
					],
					"stateMutability": "view",
					"type": "function"
				}
			],
			"devdoc": {
				"kind": "dev",
				"methods": {},
				"version": 1
			},
			"evm": {
				"assembly": "    /* \"contracts/Test.sol\":142:1131  contract Test {... */\n  mstore(0x40, 0x80)\n  callvalue\n  dup1\n  iszero\n  tag_1\n  jumpi\n  0x00\n  dup1\n  revert\ntag_1:\n  pop\n  dataSize(sub_0)\n  dup1\n  dataOffset(sub_0)\n  0x00\n  codecopy\n  0x00\n  return\nstop\n\nsub_0: assembly {\n        /* \"contracts/Test.sol\":142:1131  contract Test {... */\n      mstore(0x40, 0x80)\n      jumpi(tag_1, lt(calldatasize, 0x04))\n      shr(0xe0, calldataload(0x00))\n      dup1\n      0x0d8e6e2c\n      eq\n      tag_2\n      jumpi\n      dup1\n      0x7e049936\n      eq\n      tag_3\n      jumpi\n      dup1\n      0x98d5fdca\n      eq\n      tag_4\n      jumpi\n      dup1\n      0xb6a324e0\n      eq\n      tag_5\n      jumpi\n      dup1\n      0xdc0d3dff\n      eq\n      tag_6\n      jumpi\n      dup1\n      0xf0306623\n      eq\n      tag_7\n      jumpi\n    tag_1:\n      0x00\n      dup1\n      revert\n        /* \"contracts/Test.sol\":460:659  function getVersion () public view returns(uint256) {... */\n    tag_2:\n      callvalue\n      dup1\n      iszero\n      tag_8\n      jumpi\n      0x00\n      dup1\n      revert\n    tag_8:\n      pop\n      tag_9\n      tag_10\n      jump\t// in\n    tag_9:\n      mload(0x40)\n      tag_11\n      swap2\n      swap1\n      tag_12\n      jump\t// in\n    tag_11:\n      mload(0x40)\n      dup1\n      swap2\n      sub\n      swap1\n      return\n        /* \"contracts/Test.sol\":196:248  mapping (address => uint256) public addressToFunders */\n    tag_3:\n      callvalue\n      dup1\n      iszero\n      tag_13\n      jumpi\n      0x00\n      dup1\n      revert\n    tag_13:\n      pop\n      tag_14\n      0x04\n      dup1\n      calldatasize\n      sub\n      dup2\n      add\n      swap1\n      tag_15\n      swap2\n      swap1\n      tag_16\n      jump\t// in\n    tag_15:\n      tag_17\n      jump\t// in\n    tag_14:\n      mload(0x40)\n      tag_18\n      swap2\n      swap1\n      tag_12\n      jump\t// in\n    tag_18:\n      mload(0x40)\n      dup1\n      swap2\n      sub\n      swap1\n      return\n        /* \"contracts/Test.sol\":665:915  function getPrice() public view returns(uint256) {... */\n    tag_4:\n      callvalue\n      dup1\n      iszero\n      tag_19\n      jumpi\n      0x00\n      dup1\n      revert\n    tag_19:\n      pop\n      tag_20\n      tag_21\n      jump\t// in\n    tag_20:\n      mload(0x40)\n      tag_22\n      swap2\n      swap1\n      tag_12\n      jump\t// in\n    tag_22:\n      mload(0x40)\n      dup1\n      swap2\n      sub\n      swap1\n      return\n        /* \"contracts/Test.sol\":257:451  function fundMe() public payable {... */\n    tag_5:\n      tag_23\n      tag_24\n      jump\t// in\n    tag_23:\n      stop\n        /* \"contracts/Test.sol\":165:189  address[] public funders */\n    tag_6:\n      callvalue\n      dup1\n      iszero\n      tag_25\n      jumpi\n      0x00\n      dup1\n      revert\n    tag_25:\n      pop\n      tag_26\n      0x04\n      dup1\n      calldatasize\n      sub\n      dup2\n      add\n      swap1\n      tag_27\n      swap2\n      swap1\n      tag_28\n      jump\t// in\n    tag_27:\n      tag_29\n      jump\t// in\n    tag_26:\n      mload(0x40)\n      tag_30\n      swap2\n      swap1\n      tag_31\n      jump\t// in\n    tag_30:\n      mload(0x40)\n      dup1\n      swap2\n      sub\n      swap1\n      return\n        /* \"contracts/Test.sol\":921:1128  function priceConverter (uint256 ethAmount) public view returns(uint256) {... */\n    tag_7:\n      callvalue\n      dup1\n      iszero\n      tag_32\n      jumpi\n      0x00\n      dup1\n      revert\n    tag_32:\n      pop\n      tag_33\n      0x04\n      dup1\n      calldatasize\n      sub\n      dup2\n      add\n      swap1\n      tag_34\n      swap2\n      swap1\n      tag_28\n      jump\t// in\n    tag_34:\n      tag_35\n      jump\t// in\n    tag_33:\n      mload(0x40)\n      tag_36\n      swap2\n      swap1\n      tag_12\n      jump\t// in\n    tag_36:\n      mload(0x40)\n      dup1\n      swap2\n      sub\n      swap1\n      return\n        /* \"contracts/Test.sol\":460:659  function getVersion () public view returns(uint256) {... */\n    tag_10:\n        /* \"contracts/Test.sol\":503:510  uint256 */\n      0x00\n        /* \"contracts/Test.sol\":519:550  AggregatorV3Interface priceFeed */\n      dup1\n        /* \"contracts/Test.sol\":575:617  0x694AA1769357215DE4FAC081bf1f309aDC325306 */\n      0x694aa1769357215de4fac081bf1f309adc325306\n        /* \"contracts/Test.sol\":519:618  AggregatorV3Interface priceFeed = AggregatorV3Interface(0x694AA1769357215DE4FAC081bf1f309aDC325306) */\n      swap1\n      pop\n        /* \"contracts/Test.sol\":632:641  priceFeed */\n      dup1\n        /* \"contracts/Test.sol\":632:649  priceFeed.version */\n      0xffffffffffffffffffffffffffffffffffffffff\n      and\n      0x54fd4d50\n        /* \"contracts/Test.sol\":632:651  priceFeed.version() */\n      mload(0x40)\n      dup2\n      0xffffffff\n      and\n      0xe0\n      shl\n      dup2\n      mstore\n      0x04\n      add\n      0x20\n      mload(0x40)\n      dup1\n      dup4\n      sub\n      dup2\n      dup7\n      gas\n      staticcall\n      iszero\n      dup1\n      iszero\n      tag_39\n      jumpi\n      returndatasize\n      0x00\n      dup1\n      returndatacopy\n      revert(0x00, returndatasize)\n    tag_39:\n      pop\n      pop\n      pop\n      pop\n      mload(0x40)\n      returndatasize\n      not(0x1f)\n      0x1f\n      dup3\n      add\n      and\n      dup3\n      add\n      dup1\n      0x40\n      mstore\n      pop\n      dup2\n      add\n      swap1\n      tag_40\n      swap2\n      swap1\n      tag_41\n      jump\t// in\n    tag_40:\n        /* \"contracts/Test.sol\":625:651  return priceFeed.version() */\n      swap2\n      pop\n      pop\n        /* \"contracts/Test.sol\":460:659  function getVersion () public view returns(uint256) {... */\n      swap1\n      jump\t// out\n        /* \"contracts/Test.sol\":196:248  mapping (address => uint256) public addressToFunders */\n    tag_17:\n      mstore(0x20, 0x01)\n      dup1\n      0x00\n      mstore\n      keccak256(0x00, 0x40)\n      0x00\n      swap2\n      pop\n      swap1\n      pop\n      sload\n      dup2\n      jump\t// out\n        /* \"contracts/Test.sol\":665:915  function getPrice() public view returns(uint256) {... */\n    tag_21:\n        /* \"contracts/Test.sol\":705:712  uint256 */\n      0x00\n        /* \"contracts/Test.sol\":721:752  AggregatorV3Interface priceFeed */\n      dup1\n        /* \"contracts/Test.sol\":778:820  0x694AA1769357215DE4FAC081bf1f309aDC325306 */\n      0x694aa1769357215de4fac081bf1f309adc325306\n        /* \"contracts/Test.sol\":721:821  AggregatorV3Interface priceFeed = AggregatorV3Interface (0x694AA1769357215DE4FAC081bf1f309aDC325306) */\n      swap1\n      pop\n        /* \"contracts/Test.sol\":830:842  int256 price */\n      0x00\n        /* \"contracts/Test.sol\":847:856  priceFeed */\n      dup2\n        /* \"contracts/Test.sol\":847:872  priceFeed.latestRoundData */\n      0xffffffffffffffffffffffffffffffffffffffff\n      and\n      0xfeaf968c\n        /* \"contracts/Test.sol\":847:874  priceFeed.latestRoundData() */\n      mload(0x40)\n      dup2\n      0xffffffff\n      and\n      0xe0\n      shl\n      dup2\n      mstore\n      0x04\n      add\n      0xa0\n      mload(0x40)\n      dup1\n      dup4\n      sub\n      dup2\n      dup7\n      gas\n      staticcall\n      iszero\n      dup1\n      iszero\n      tag_44\n      jumpi\n      returndatasize\n      0x00\n      dup1\n      returndatacopy\n      revert(0x00, returndatasize)\n    tag_44:\n      pop\n      pop\n      pop\n      pop\n      mload(0x40)\n      returndatasize\n      not(0x1f)\n      0x1f\n      dup3\n      add\n      and\n      dup3\n      add\n      dup1\n      0x40\n      mstore\n      pop\n      dup2\n      add\n      swap1\n      tag_45\n      swap2\n      swap1\n      tag_46\n      jump\t// in\n    tag_45:\n        /* \"contracts/Test.sol\":828:874  (,int256 price,,,)=priceFeed.latestRoundData() */\n      pop\n      pop\n      pop\n      swap2\n      pop\n      pop\n        /* \"contracts/Test.sol\":904:908  1e18 */\n      0x0de0b6b3a7640000\n        /* \"contracts/Test.sol\":896:901  price */\n      dup2\n        /* \"contracts/Test.sol\":896:908  price * 1e18 */\n      tag_47\n      swap2\n      swap1\n      tag_48\n      jump\t// in\n    tag_47:\n        /* \"contracts/Test.sol\":881:909  return uint256(price * 1e18) */\n      swap3\n      pop\n      pop\n      pop\n        /* \"contracts/Test.sol\":665:915  function getPrice() public view returns(uint256) {... */\n      swap1\n      jump\t// out\n        /* \"contracts/Test.sol\":257:451  function fundMe() public payable {... */\n    tag_24:\n        /* \"contracts/Test.sol\":338:342  1e18 */\n      0x0de0b6b3a7640000\n        /* \"contracts/Test.sol\":309:334  priceConverter(msg.value) */\n      tag_50\n        /* \"contracts/Test.sol\":324:333  msg.value */\n      callvalue\n        /* \"contracts/Test.sol\":309:323  priceConverter */\n      tag_35\n        /* \"contracts/Test.sol\":309:334  priceConverter(msg.value) */\n      jump\t// in\n    tag_50:\n        /* \"contracts/Test.sol\":309:342  priceConverter(msg.value) >= 1e18 */\n      lt\n      iszero\n        /* \"contracts/Test.sol\":301:357  require(priceConverter(msg.value) >= 1e18, \"Not enough\") */\n      tag_51\n      jumpi\n      mload(0x40)\n      0x08c379a000000000000000000000000000000000000000000000000000000000\n      dup2\n      mstore\n      0x04\n      add\n      tag_52\n      swap1\n      tag_53\n      jump\t// in\n    tag_52:\n      mload(0x40)\n      dup1\n      swap2\n      sub\n      swap1\n      revert\n    tag_51:\n        /* \"contracts/Test.sol\":368:375  funders */\n      0x00\n        /* \"contracts/Test.sol\":381:391  msg.sender */\n      caller\n        /* \"contracts/Test.sol\":368:392  funders.push(msg.sender) */\n      swap1\n      dup1\n      0x01\n      dup2\n      sload\n      add\n      dup1\n      dup3\n      sstore\n      dup1\n      swap2\n      pop\n      pop\n      0x01\n      swap1\n      sub\n      swap1\n      0x00\n      mstore\n      keccak256(0x00, 0x20)\n      add\n      0x00\n      swap1\n      swap2\n      swap1\n      swap2\n      swap1\n      swap2\n      0x0100\n      exp\n      dup2\n      sload\n      dup2\n      0xffffffffffffffffffffffffffffffffffffffff\n      mul\n      not\n      and\n      swap1\n      dup4\n      0xffffffffffffffffffffffffffffffffffffffff\n      and\n      mul\n      or\n      swap1\n      sstore\n      pop\n        /* \"contracts/Test.sol\":434:443  msg.value */\n      callvalue\n        /* \"contracts/Test.sol\":403:419  addressToFunders */\n      0x01\n        /* \"contracts/Test.sol\":403:431  addressToFunders[msg.sender] */\n      0x00\n        /* \"contracts/Test.sol\":420:430  msg.sender */\n      caller\n        /* \"contracts/Test.sol\":403:431  addressToFunders[msg.sender] */\n      0xffffffffffffffffffffffffffffffffffffffff\n      and\n      0xffffffffffffffffffffffffffffffffffffffff\n      and\n      dup2\n      mstore\n      0x20\n      add\n      swap1\n      dup2\n      mstore\n      0x20\n      add\n      0x00\n      keccak256\n        /* \"contracts/Test.sol\":403:443  addressToFunders[msg.sender] = msg.value */\n      dup2\n      swap1\n      sstore\n      pop\n        /* \"contracts/Test.sol\":257:451  function fundMe() public payable {... */\n      jump\t// out\n        /* \"contracts/Test.sol\":165:189  address[] public funders */\n    tag_29:\n      0x00\n      dup2\n      dup2\n      sload\n      dup2\n      lt\n      tag_55\n      jumpi\n      0x00\n      dup1\n      revert\n    tag_55:\n      swap1\n      0x00\n      mstore\n      keccak256(0x00, 0x20)\n      add\n      0x00\n      swap2\n      pop\n      sload\n      swap1\n      0x0100\n      exp\n      swap1\n      div\n      0xffffffffffffffffffffffffffffffffffffffff\n      and\n      dup2\n      jump\t// out\n        /* \"contracts/Test.sol\":921:1128  function priceConverter (uint256 ethAmount) public view returns(uint256) {... */\n    tag_35:\n        /* \"contracts/Test.sol\":985:992  uint256 */\n      0x00\n        /* \"contracts/Test.sol\":1002:1018  uint256 ethPrice */\n      dup1\n        /* \"contracts/Test.sol\":1021:1031  getPrice() */\n      tag_58\n        /* \"contracts/Test.sol\":1021:1029  getPrice */\n      tag_21\n        /* \"contracts/Test.sol\":1021:1031  getPrice() */\n      jump\t// in\n    tag_58:\n        /* \"contracts/Test.sol\":1002:1031  uint256 ethPrice = getPrice() */\n      swap1\n      pop\n        /* \"contracts/Test.sol\":1039:1061  uint256 ethAmountInUsd */\n      0x00\n        /* \"contracts/Test.sol\":1089:1093  1e10 */\n      0x02540be400\n        /* \"contracts/Test.sol\":1077:1085  ethPrice */\n      dup3\n        /* \"contracts/Test.sol\":1065:1074  ethAmount */\n      dup6\n        /* \"contracts/Test.sol\":1065:1085  ethAmount * ethPrice */\n      tag_59\n      swap2\n      swap1\n      tag_60\n      jump\t// in\n    tag_59:\n        /* \"contracts/Test.sol\":1064:1093  (ethAmount * ethPrice) * 1e10 */\n      tag_61\n      swap2\n      swap1\n      tag_60\n      jump\t// in\n    tag_61:\n        /* \"contracts/Test.sol\":1039:1093  uint256 ethAmountInUsd = (ethAmount * ethPrice) * 1e10 */\n      swap1\n      pop\n        /* \"contracts/Test.sol\":1108:1122  ethAmountInUsd */\n      dup1\n        /* \"contracts/Test.sol\":1101:1122  return ethAmountInUsd */\n      swap3\n      pop\n      pop\n      pop\n        /* \"contracts/Test.sol\":921:1128  function priceConverter (uint256 ethAmount) public view returns(uint256) {... */\n      swap2\n      swap1\n      pop\n      jump\t// out\n        /* \"#utility.yul\":7:84   */\n    tag_62:\n        /* \"#utility.yul\":44:51   */\n      0x00\n        /* \"#utility.yul\":73:78   */\n      dup2\n        /* \"#utility.yul\":62:78   */\n      swap1\n      pop\n        /* \"#utility.yul\":7:84   */\n      swap2\n      swap1\n      pop\n      jump\t// out\n        /* \"#utility.yul\":90:208   */\n    tag_63:\n        /* \"#utility.yul\":177:201   */\n      tag_88\n        /* \"#utility.yul\":195:200   */\n      dup2\n        /* \"#utility.yul\":177:201   */\n      tag_62\n      jump\t// in\n    tag_88:\n        /* \"#utility.yul\":172:175   */\n      dup3\n        /* \"#utility.yul\":165:202   */\n      mstore\n        /* \"#utility.yul\":90:208   */\n      pop\n      pop\n      jump\t// out\n        /* \"#utility.yul\":214:436   */\n    tag_12:\n        /* \"#utility.yul\":307:311   */\n      0x00\n        /* \"#utility.yul\":345:347   */\n      0x20\n        /* \"#utility.yul\":334:343   */\n      dup3\n        /* \"#utility.yul\":330:348   */\n      add\n        /* \"#utility.yul\":322:348   */\n      swap1\n      pop\n        /* \"#utility.yul\":358:429   */\n      tag_90\n        /* \"#utility.yul\":426:427   */\n      0x00\n        /* \"#utility.yul\":415:424   */\n      dup4\n        /* \"#utility.yul\":411:428   */\n      add\n        /* \"#utility.yul\":402:408   */\n      dup5\n        /* \"#utility.yul\":358:429   */\n      tag_63\n      jump\t// in\n    tag_90:\n        /* \"#utility.yul\":214:436   */\n      swap3\n      swap2\n      pop\n      pop\n      jump\t// out\n        /* \"#utility.yul\":523:640   */\n    tag_65:\n        /* \"#utility.yul\":632:633   */\n      0x00\n        /* \"#utility.yul\":629:630   */\n      dup1\n        /* \"#utility.yul\":622:634   */\n      revert\n        /* \"#utility.yul\":769:895   */\n    tag_67:\n        /* \"#utility.yul\":806:813   */\n      0x00\n        /* \"#utility.yul\":846:888   */\n      0xffffffffffffffffffffffffffffffffffffffff\n        /* \"#utility.yul\":839:844   */\n      dup3\n        /* \"#utility.yul\":835:889   */\n      and\n        /* \"#utility.yul\":824:889   */\n      swap1\n      pop\n        /* \"#utility.yul\":769:895   */\n      swap2\n      swap1\n      pop\n      jump\t// out\n        /* \"#utility.yul\":901:997   */\n    tag_68:\n        /* \"#utility.yul\":938:945   */\n      0x00\n        /* \"#utility.yul\":967:991   */\n      tag_96\n        /* \"#utility.yul\":985:990   */\n      dup3\n        /* \"#utility.yul\":967:991   */\n      tag_67\n      jump\t// in\n    tag_96:\n        /* \"#utility.yul\":956:991   */\n      swap1\n      pop\n        /* \"#utility.yul\":901:997   */\n      swap2\n      swap1\n      pop\n      jump\t// out\n        /* \"#utility.yul\":1003:1125   */\n    tag_69:\n        /* \"#utility.yul\":1076:1100   */\n      tag_98\n        /* \"#utility.yul\":1094:1099   */\n      dup2\n        /* \"#utility.yul\":1076:1100   */\n      tag_68\n      jump\t// in\n    tag_98:\n        /* \"#utility.yul\":1069:1074   */\n      dup2\n        /* \"#utility.yul\":1066:1101   */\n      eq\n        /* \"#utility.yul\":1056:1119   */\n      tag_99\n      jumpi\n        /* \"#utility.yul\":1115:1116   */\n      0x00\n        /* \"#utility.yul\":1112:1113   */\n      dup1\n        /* \"#utility.yul\":1105:1117   */\n      revert\n        /* \"#utility.yul\":1056:1119   */\n    tag_99:\n        /* \"#utility.yul\":1003:1125   */\n      pop\n      jump\t// out\n        /* \"#utility.yul\":1131:1270   */\n    tag_70:\n        /* \"#utility.yul\":1177:1182   */\n      0x00\n        /* \"#utility.yul\":1215:1221   */\n      dup2\n        /* \"#utility.yul\":1202:1222   */\n      calldataload\n        /* \"#utility.yul\":1193:1222   */\n      swap1\n      pop\n        /* \"#utility.yul\":1231:1264   */\n      tag_101\n        /* \"#utility.yul\":1258:1263   */\n      dup2\n        /* \"#utility.yul\":1231:1264   */\n      tag_69\n      jump\t// in\n    tag_101:\n        /* \"#utility.yul\":1131:1270   */\n      swap3\n      swap2\n      pop\n      pop\n      jump\t// out\n        /* \"#utility.yul\":1276:1605   */\n    tag_16:\n        /* \"#utility.yul\":1335:1341   */\n      0x00\n        /* \"#utility.yul\":1384:1386   */\n      0x20\n        /* \"#utility.yul\":1372:1381   */\n      dup3\n        /* \"#utility.yul\":1363:1370   */\n      dup5\n        /* \"#utility.yul\":1359:1382   */\n      sub\n        /* \"#utility.yul\":1355:1387   */\n      slt\n        /* \"#utility.yul\":1352:1471   */\n      iszero\n      tag_103\n      jumpi\n        /* \"#utility.yul\":1390:1469   */\n      tag_104\n      tag_65\n      jump\t// in\n    tag_104:\n        /* \"#utility.yul\":1352:1471   */\n    tag_103:\n        /* \"#utility.yul\":1510:1511   */\n      0x00\n        /* \"#utility.yul\":1535:1588   */\n      tag_105\n        /* \"#utility.yul\":1580:1587   */\n      dup5\n        /* \"#utility.yul\":1571:1577   */\n      dup3\n        /* \"#utility.yul\":1560:1569   */\n      dup6\n        /* \"#utility.yul\":1556:1578   */\n      add\n        /* \"#utility.yul\":1535:1588   */\n      tag_70\n      jump\t// in\n    tag_105:\n        /* \"#utility.yul\":1525:1588   */\n      swap2\n      pop\n        /* \"#utility.yul\":1481:1598   */\n      pop\n        /* \"#utility.yul\":1276:1605   */\n      swap3\n      swap2\n      pop\n      pop\n      jump\t// out\n        /* \"#utility.yul\":1611:1733   */\n    tag_71:\n        /* \"#utility.yul\":1684:1708   */\n      tag_107\n        /* \"#utility.yul\":1702:1707   */\n      dup2\n        /* \"#utility.yul\":1684:1708   */\n      tag_62\n      jump\t// in\n    tag_107:\n        /* \"#utility.yul\":1677:1682   */\n      dup2\n        /* \"#utility.yul\":1674:1709   */\n      eq\n        /* \"#utility.yul\":1664:1727   */\n      tag_108\n      jumpi\n        /* \"#utility.yul\":1723:1724   */\n      0x00\n        /* \"#utility.yul\":1720:1721   */\n      dup1\n        /* \"#utility.yul\":1713:1725   */\n      revert\n        /* \"#utility.yul\":1664:1727   */\n    tag_108:\n        /* \"#utility.yul\":1611:1733   */\n      pop\n      jump\t// out\n        /* \"#utility.yul\":1739:1878   */\n    tag_72:\n        /* \"#utility.yul\":1785:1790   */\n      0x00\n        /* \"#utility.yul\":1823:1829   */\n      dup2\n        /* \"#utility.yul\":1810:1830   */\n      calldataload\n        /* \"#utility.yul\":1801:1830   */\n      swap1\n      pop\n        /* \"#utility.yul\":1839:1872   */\n      tag_110\n        /* \"#utility.yul\":1866:1871   */\n      dup2\n        /* \"#utility.yul\":1839:1872   */\n      tag_71\n      jump\t// in\n    tag_110:\n        /* \"#utility.yul\":1739:1878   */\n      swap3\n      swap2\n      pop\n      pop\n      jump\t// out\n        /* \"#utility.yul\":1884:2213   */\n    tag_28:\n        /* \"#utility.yul\":1943:1949   */\n      0x00\n        /* \"#utility.yul\":1992:1994   */\n      0x20\n        /* \"#utility.yul\":1980:1989   */\n      dup3\n        /* \"#utility.yul\":1971:1978   */\n      dup5\n        /* \"#utility.yul\":1967:1990   */\n      sub\n        /* \"#utility.yul\":1963:1995   */\n      slt\n        /* \"#utility.yul\":1960:2079   */\n      iszero\n      tag_112\n      jumpi\n        /* \"#utility.yul\":1998:2077   */\n      tag_113\n      tag_65\n      jump\t// in\n    tag_113:\n        /* \"#utility.yul\":1960:2079   */\n    tag_112:\n        /* \"#utility.yul\":2118:2119   */\n      0x00\n        /* \"#utility.yul\":2143:2196   */\n      tag_114\n        /* \"#utility.yul\":2188:2195   */\n      dup5\n        /* \"#utility.yul\":2179:2185   */\n      dup3\n        /* \"#utility.yul\":2168:2177   */\n      dup6\n        /* \"#utility.yul\":2164:2186   */\n      add\n        /* \"#utility.yul\":2143:2196   */\n      tag_72\n      jump\t// in\n    tag_114:\n        /* \"#utility.yul\":2133:2196   */\n      swap2\n      pop\n        /* \"#utility.yul\":2089:2206   */\n      pop\n        /* \"#utility.yul\":1884:2213   */\n      swap3\n      swap2\n      pop\n      pop\n      jump\t// out\n        /* \"#utility.yul\":2219:2337   */\n    tag_73:\n        /* \"#utility.yul\":2306:2330   */\n      tag_116\n        /* \"#utility.yul\":2324:2329   */\n      dup2\n        /* \"#utility.yul\":2306:2330   */\n      tag_68\n      jump\t// in\n    tag_116:\n        /* \"#utility.yul\":2301:2304   */\n      dup3\n        /* \"#utility.yul\":2294:2331   */\n      mstore\n        /* \"#utility.yul\":2219:2337   */\n      pop\n      pop\n      jump\t// out\n        /* \"#utility.yul\":2343:2565   */\n    tag_31:\n        /* \"#utility.yul\":2436:2440   */\n      0x00\n        /* \"#utility.yul\":2474:2476   */\n      0x20\n        /* \"#utility.yul\":2463:2472   */\n      dup3\n        /* \"#utility.yul\":2459:2477   */\n      add\n        /* \"#utility.yul\":2451:2477   */\n      swap1\n      pop\n        /* \"#utility.yul\":2487:2558   */\n      tag_118\n        /* \"#utility.yul\":2555:2556   */\n      0x00\n        /* \"#utility.yul\":2544:2553   */\n      dup4\n        /* \"#utility.yul\":2540:2557   */\n      add\n        /* \"#utility.yul\":2531:2537   */\n      dup5\n        /* \"#utility.yul\":2487:2558   */\n      tag_73\n      jump\t// in\n    tag_118:\n        /* \"#utility.yul\":2343:2565   */\n      swap3\n      swap2\n      pop\n      pop\n      jump\t// out\n        /* \"#utility.yul\":2571:2714   */\n    tag_74:\n        /* \"#utility.yul\":2628:2633   */\n      0x00\n        /* \"#utility.yul\":2659:2665   */\n      dup2\n        /* \"#utility.yul\":2653:2666   */\n      mload\n        /* \"#utility.yul\":2644:2666   */\n      swap1\n      pop\n        /* \"#utility.yul\":2675:2708   */\n      tag_120\n        /* \"#utility.yul\":2702:2707   */\n      dup2\n        /* \"#utility.yul\":2675:2708   */\n      tag_71\n      jump\t// in\n    tag_120:\n        /* \"#utility.yul\":2571:2714   */\n      swap3\n      swap2\n      pop\n      pop\n      jump\t// out\n        /* \"#utility.yul\":2720:3071   */\n    tag_41:\n        /* \"#utility.yul\":2790:2796   */\n      0x00\n        /* \"#utility.yul\":2839:2841   */\n      0x20\n        /* \"#utility.yul\":2827:2836   */\n      dup3\n        /* \"#utility.yul\":2818:2825   */\n      dup5\n        /* \"#utility.yul\":2814:2837   */\n      sub\n        /* \"#utility.yul\":2810:2842   */\n      slt\n        /* \"#utility.yul\":2807:2926   */\n      iszero\n      tag_122\n      jumpi\n        /* \"#utility.yul\":2845:2924   */\n      tag_123\n      tag_65\n      jump\t// in\n    tag_123:\n        /* \"#utility.yul\":2807:2926   */\n    tag_122:\n        /* \"#utility.yul\":2965:2966   */\n      0x00\n        /* \"#utility.yul\":2990:3054   */\n      tag_124\n        /* \"#utility.yul\":3046:3053   */\n      dup5\n        /* \"#utility.yul\":3037:3043   */\n      dup3\n        /* \"#utility.yul\":3026:3035   */\n      dup6\n        /* \"#utility.yul\":3022:3044   */\n      add\n        /* \"#utility.yul\":2990:3054   */\n      tag_74\n      jump\t// in\n    tag_124:\n        /* \"#utility.yul\":2980:3054   */\n      swap2\n      pop\n        /* \"#utility.yul\":2936:3064   */\n      pop\n        /* \"#utility.yul\":2720:3071   */\n      swap3\n      swap2\n      pop\n      pop\n      jump\t// out\n        /* \"#utility.yul\":3077:3182   */\n    tag_75:\n        /* \"#utility.yul\":3113:3120   */\n      0x00\n        /* \"#utility.yul\":3153:3175   */\n      0xffffffffffffffffffff\n        /* \"#utility.yul\":3146:3151   */\n      dup3\n        /* \"#utility.yul\":3142:3176   */\n      and\n        /* \"#utility.yul\":3131:3176   */\n      swap1\n      pop\n        /* \"#utility.yul\":3077:3182   */\n      swap2\n      swap1\n      pop\n      jump\t// out\n        /* \"#utility.yul\":3188:3308   */\n    tag_76:\n        /* \"#utility.yul\":3260:3283   */\n      tag_127\n        /* \"#utility.yul\":3277:3282   */\n      dup2\n        /* \"#utility.yul\":3260:3283   */\n      tag_75\n      jump\t// in\n    tag_127:\n        /* \"#utility.yul\":3253:3258   */\n      dup2\n        /* \"#utility.yul\":3250:3284   */\n      eq\n        /* \"#utility.yul\":3240:3302   */\n      tag_128\n      jumpi\n        /* \"#utility.yul\":3298:3299   */\n      0x00\n        /* \"#utility.yul\":3295:3296   */\n      dup1\n        /* \"#utility.yul\":3288:3300   */\n      revert\n        /* \"#utility.yul\":3240:3302   */\n    tag_128:\n        /* \"#utility.yul\":3188:3308   */\n      pop\n      jump\t// out\n        /* \"#utility.yul\":3314:3455   */\n    tag_77:\n        /* \"#utility.yul\":3370:3375   */\n      0x00\n        /* \"#utility.yul\":3401:3407   */\n      dup2\n        /* \"#utility.yul\":3395:3408   */\n      mload\n        /* \"#utility.yul\":3386:3408   */\n      swap1\n      pop\n        /* \"#utility.yul\":3417:3449   */\n      tag_130\n        /* \"#utility.yul\":3443:3448   */\n      dup2\n        /* \"#utility.yul\":3417:3449   */\n      tag_76\n      jump\t// in\n    tag_130:\n        /* \"#utility.yul\":3314:3455   */\n      swap3\n      swap2\n      pop\n      pop\n      jump\t// out\n        /* \"#utility.yul\":3461:3537   */\n    tag_78:\n        /* \"#utility.yul\":3497:3504   */\n      0x00\n        /* \"#utility.yul\":3526:3531   */\n      dup2\n        /* \"#utility.yul\":3515:3531   */\n      swap1\n      pop\n        /* \"#utility.yul\":3461:3537   */\n      swap2\n      swap1\n      pop\n      jump\t// out\n        /* \"#utility.yul\":3543:3663   */\n    tag_79:\n        /* \"#utility.yul\":3615:3638   */\n      tag_133\n        /* \"#utility.yul\":3632:3637   */\n      dup2\n        /* \"#utility.yul\":3615:3638   */\n      tag_78\n      jump\t// in\n    tag_133:\n        /* \"#utility.yul\":3608:3613   */\n      dup2\n        /* \"#utility.yul\":3605:3639   */\n      eq\n        /* \"#utility.yul\":3595:3657   */\n      tag_134\n      jumpi\n        /* \"#utility.yul\":3653:3654   */\n      0x00\n        /* \"#utility.yul\":3650:3651   */\n      dup1\n        /* \"#utility.yul\":3643:3655   */\n      revert\n        /* \"#utility.yul\":3595:3657   */\n    tag_134:\n        /* \"#utility.yul\":3543:3663   */\n      pop\n      jump\t// out\n        /* \"#utility.yul\":3669:3810   */\n    tag_80:\n        /* \"#utility.yul\":3725:3730   */\n      0x00\n        /* \"#utility.yul\":3756:3762   */\n      dup2\n        /* \"#utility.yul\":3750:3763   */\n      mload\n        /* \"#utility.yul\":3741:3763   */\n      swap1\n      pop\n        /* \"#utility.yul\":3772:3804   */\n      tag_136\n        /* \"#utility.yul\":3798:3803   */\n      dup2\n        /* \"#utility.yul\":3772:3804   */\n      tag_79\n      jump\t// in\n    tag_136:\n        /* \"#utility.yul\":3669:3810   */\n      swap3\n      swap2\n      pop\n      pop\n      jump\t// out\n        /* \"#utility.yul\":3816:4787   */\n    tag_46:\n        /* \"#utility.yul\":3919:3925   */\n      0x00\n        /* \"#utility.yul\":3927:3933   */\n      dup1\n        /* \"#utility.yul\":3935:3941   */\n      0x00\n        /* \"#utility.yul\":3943:3949   */\n      dup1\n        /* \"#utility.yul\":3951:3957   */\n      0x00\n        /* \"#utility.yul\":4000:4003   */\n      0xa0\n        /* \"#utility.yul\":3988:3997   */\n      dup7\n        /* \"#utility.yul\":3979:3986   */\n      dup9\n        /* \"#utility.yul\":3975:3998   */\n      sub\n        /* \"#utility.yul\":3971:4004   */\n      slt\n        /* \"#utility.yul\":3968:4088   */\n      iszero\n      tag_138\n      jumpi\n        /* \"#utility.yul\":4007:4086   */\n      tag_139\n      tag_65\n      jump\t// in\n    tag_139:\n        /* \"#utility.yul\":3968:4088   */\n    tag_138:\n        /* \"#utility.yul\":4127:4128   */\n      0x00\n        /* \"#utility.yul\":4152:4215   */\n      tag_140\n        /* \"#utility.yul\":4207:4214   */\n      dup9\n        /* \"#utility.yul\":4198:4204   */\n      dup3\n        /* \"#utility.yul\":4187:4196   */\n      dup10\n        /* \"#utility.yul\":4183:4205   */\n      add\n        /* \"#utility.yul\":4152:4215   */\n      tag_77\n      jump\t// in\n    tag_140:\n        /* \"#utility.yul\":4142:4215   */\n      swap6\n      pop\n        /* \"#utility.yul\":4098:4225   */\n      pop\n        /* \"#utility.yul\":4264:4266   */\n      0x20\n        /* \"#utility.yul\":4290:4353   */\n      tag_141\n        /* \"#utility.yul\":4345:4352   */\n      dup9\n        /* \"#utility.yul\":4336:4342   */\n      dup3\n        /* \"#utility.yul\":4325:4334   */\n      dup10\n        /* \"#utility.yul\":4321:4343   */\n      add\n        /* \"#utility.yul\":4290:4353   */\n      tag_80\n      jump\t// in\n    tag_141:\n        /* \"#utility.yul\":4280:4353   */\n      swap5\n      pop\n        /* \"#utility.yul\":4235:4363   */\n      pop\n        /* \"#utility.yul\":4402:4404   */\n      0x40\n        /* \"#utility.yul\":4428:4492   */\n      tag_142\n        /* \"#utility.yul\":4484:4491   */\n      dup9\n        /* \"#utility.yul\":4475:4481   */\n      dup3\n        /* \"#utility.yul\":4464:4473   */\n      dup10\n        /* \"#utility.yul\":4460:4482   */\n      add\n        /* \"#utility.yul\":4428:4492   */\n      tag_74\n      jump\t// in\n    tag_142:\n        /* \"#utility.yul\":4418:4492   */\n      swap4\n      pop\n        /* \"#utility.yul\":4373:4502   */\n      pop\n        /* \"#utility.yul\":4541:4543   */\n      0x60\n        /* \"#utility.yul\":4567:4631   */\n      tag_143\n        /* \"#utility.yul\":4623:4630   */\n      dup9\n        /* \"#utility.yul\":4614:4620   */\n      dup3\n        /* \"#utility.yul\":4603:4612   */\n      dup10\n        /* \"#utility.yul\":4599:4621   */\n      add\n        /* \"#utility.yul\":4567:4631   */\n      tag_74\n      jump\t// in\n    tag_143:\n        /* \"#utility.yul\":4557:4631   */\n      swap3\n      pop\n        /* \"#utility.yul\":4512:4641   */\n      pop\n        /* \"#utility.yul\":4680:4683   */\n      0x80\n        /* \"#utility.yul\":4707:4770   */\n      tag_144\n        /* \"#utility.yul\":4762:4769   */\n      dup9\n        /* \"#utility.yul\":4753:4759   */\n      dup3\n        /* \"#utility.yul\":4742:4751   */\n      dup10\n        /* \"#utility.yul\":4738:4760   */\n      add\n        /* \"#utility.yul\":4707:4770   */\n      tag_77\n      jump\t// in\n    tag_144:\n        /* \"#utility.yul\":4697:4770   */\n      swap2\n      pop\n        /* \"#utility.yul\":4651:4780   */\n      pop\n        /* \"#utility.yul\":3816:4787   */\n      swap3\n      swap6\n      pop\n      swap3\n      swap6\n      swap1\n      swap4\n      pop\n      jump\t// out\n        /* \"#utility.yul\":4793:4973   */\n    tag_81:\n        /* \"#utility.yul\":4841:4918   */\n      0x4e487b7100000000000000000000000000000000000000000000000000000000\n        /* \"#utility.yul\":4838:4839   */\n      0x00\n        /* \"#utility.yul\":4831:4919   */\n      mstore\n        /* \"#utility.yul\":4938:4942   */\n      0x11\n        /* \"#utility.yul\":4935:4936   */\n      0x04\n        /* \"#utility.yul\":4928:4943   */\n      mstore\n        /* \"#utility.yul\":4962:4966   */\n      0x24\n        /* \"#utility.yul\":4959:4960   */\n      0x00\n        /* \"#utility.yul\":4952:4967   */\n      revert\n        /* \"#utility.yul\":4979:5535   */\n    tag_48:\n        /* \"#utility.yul\":5018:5025   */\n      0x00\n        /* \"#utility.yul\":5041:5060   */\n      tag_147\n        /* \"#utility.yul\":5058:5059   */\n      dup3\n        /* \"#utility.yul\":5041:5060   */\n      tag_78\n      jump\t// in\n    tag_147:\n        /* \"#utility.yul\":5036:5060   */\n      swap2\n      pop\n        /* \"#utility.yul\":5074:5093   */\n      tag_148\n        /* \"#utility.yul\":5091:5092   */\n      dup4\n        /* \"#utility.yul\":5074:5093   */\n      tag_78\n      jump\t// in\n    tag_148:\n        /* \"#utility.yul\":5069:5093   */\n      swap3\n      pop\n        /* \"#utility.yul\":5128:5129   */\n      dup3\n        /* \"#utility.yul\":5125:5126   */\n      dup3\n        /* \"#utility.yul\":5121:5130   */\n      mul\n        /* \"#utility.yul\":5150:5179   */\n      tag_149\n        /* \"#utility.yul\":5167:5178   */\n      dup2\n        /* \"#utility.yul\":5150:5179   */\n      tag_78\n      jump\t// in\n    tag_149:\n        /* \"#utility.yul\":5139:5179   */\n      swap2\n      pop\n        /* \"#utility.yul\":5237:5303   */\n      0x8000000000000000000000000000000000000000000000000000000000000000\n        /* \"#utility.yul\":5234:5235   */\n      dup5\n        /* \"#utility.yul\":5231:5304   */\n      eq\n        /* \"#utility.yul\":5227:5228   */\n      0x00\n        /* \"#utility.yul\":5224:5225   */\n      dup5\n        /* \"#utility.yul\":5220:5229   */\n      slt\n        /* \"#utility.yul\":5216:5305   */\n      and\n        /* \"#utility.yul\":5213:5328   */\n      iszero\n      tag_150\n      jumpi\n        /* \"#utility.yul\":5308:5326   */\n      tag_151\n      tag_81\n      jump\t// in\n    tag_151:\n        /* \"#utility.yul\":5213:5328   */\n    tag_150:\n        /* \"#utility.yul\":5478:5479   */\n      dup3\n        /* \"#utility.yul\":5469:5476   */\n      dup3\n        /* \"#utility.yul\":5464:5480   */\n      sdiv\n        /* \"#utility.yul\":5461:5462   */\n      dup5\n        /* \"#utility.yul\":5458:5481   */\n      eq\n        /* \"#utility.yul\":5438:5439   */\n      dup4\n        /* \"#utility.yul\":5431:5440   */\n      iszero\n        /* \"#utility.yul\":5411:5495   */\n      or\n        /* \"#utility.yul\":5388:5528   */\n      tag_152\n      jumpi\n        /* \"#utility.yul\":5508:5526   */\n      tag_153\n      tag_81\n      jump\t// in\n    tag_153:\n        /* \"#utility.yul\":5388:5528   */\n    tag_152:\n        /* \"#utility.yul\":5026:5535   */\n      pop\n        /* \"#utility.yul\":4979:5535   */\n      swap3\n      swap2\n      pop\n      pop\n      jump\t// out\n        /* \"#utility.yul\":5541:5710   */\n    tag_82:\n        /* \"#utility.yul\":5625:5636   */\n      0x00\n        /* \"#utility.yul\":5659:5665   */\n      dup3\n        /* \"#utility.yul\":5654:5657   */\n      dup3\n        /* \"#utility.yul\":5647:5666   */\n      mstore\n        /* \"#utility.yul\":5699:5703   */\n      0x20\n        /* \"#utility.yul\":5694:5697   */\n      dup3\n        /* \"#utility.yul\":5690:5704   */\n      add\n        /* \"#utility.yul\":5675:5704   */\n      swap1\n      pop\n        /* \"#utility.yul\":5541:5710   */\n      swap3\n      swap2\n      pop\n      pop\n      jump\t// out\n        /* \"#utility.yul\":5716:5876   */\n    tag_83:\n        /* \"#utility.yul\":5856:5868   */\n      0x4e6f7420656e6f75676800000000000000000000000000000000000000000000\n        /* \"#utility.yul\":5852:5853   */\n      0x00\n        /* \"#utility.yul\":5844:5850   */\n      dup3\n        /* \"#utility.yul\":5840:5854   */\n      add\n        /* \"#utility.yul\":5833:5869   */\n      mstore\n        /* \"#utility.yul\":5716:5876   */\n      pop\n      jump\t// out\n        /* \"#utility.yul\":5882:6248   */\n    tag_84:\n        /* \"#utility.yul\":6024:6027   */\n      0x00\n        /* \"#utility.yul\":6045:6112   */\n      tag_157\n        /* \"#utility.yul\":6109:6111   */\n      0x0a\n        /* \"#utility.yul\":6104:6107   */\n      dup4\n        /* \"#utility.yul\":6045:6112   */\n      tag_82\n      jump\t// in\n    tag_157:\n        /* \"#utility.yul\":6038:6112   */\n      swap2\n      pop\n        /* \"#utility.yul\":6121:6214   */\n      tag_158\n        /* \"#utility.yul\":6210:6213   */\n      dup3\n        /* \"#utility.yul\":6121:6214   */\n      tag_83\n      jump\t// in\n    tag_158:\n        /* \"#utility.yul\":6239:6241   */\n      0x20\n        /* \"#utility.yul\":6234:6237   */\n      dup3\n        /* \"#utility.yul\":6230:6242   */\n      add\n        /* \"#utility.yul\":6223:6242   */\n      swap1\n      pop\n        /* \"#utility.yul\":5882:6248   */\n      swap2\n      swap1\n      pop\n      jump\t// out\n        /* \"#utility.yul\":6254:6673   */\n    tag_53:\n        /* \"#utility.yul\":6420:6424   */\n      0x00\n        /* \"#utility.yul\":6458:6460   */\n      0x20\n        /* \"#utility.yul\":6447:6456   */\n      dup3\n        /* \"#utility.yul\":6443:6461   */\n      add\n        /* \"#utility.yul\":6435:6461   */\n      swap1\n      pop\n        /* \"#utility.yul\":6507:6516   */\n      dup2\n        /* \"#utility.yul\":6501:6505   */\n      dup2\n        /* \"#utility.yul\":6497:6517   */\n      sub\n        /* \"#utility.yul\":6493:6494   */\n      0x00\n        /* \"#utility.yul\":6482:6491   */\n      dup4\n        /* \"#utility.yul\":6478:6495   */\n      add\n        /* \"#utility.yul\":6471:6518   */\n      mstore\n        /* \"#utility.yul\":6535:6666   */\n      tag_160\n        /* \"#utility.yul\":6661:6665   */\n      dup2\n        /* \"#utility.yul\":6535:6666   */\n      tag_84\n      jump\t// in\n    tag_160:\n        /* \"#utility.yul\":6527:6666   */\n      swap1\n      pop\n        /* \"#utility.yul\":6254:6673   */\n      swap2\n      swap1\n      pop\n      jump\t// out\n        /* \"#utility.yul\":6679:7089   */\n    tag_60:\n        /* \"#utility.yul\":6719:6726   */\n      0x00\n        /* \"#utility.yul\":6742:6762   */\n      tag_162\n        /* \"#utility.yul\":6760:6761   */\n      dup3\n        /* \"#utility.yul\":6742:6762   */\n      tag_62\n      jump\t// in\n    tag_162:\n        /* \"#utility.yul\":6737:6762   */\n      swap2\n      pop\n        /* \"#utility.yul\":6776:6796   */\n      tag_163\n        /* \"#utility.yul\":6794:6795   */\n      dup4\n        /* \"#utility.yul\":6776:6796   */\n      tag_62\n      jump\t// in\n    tag_163:\n        /* \"#utility.yul\":6771:6796   */\n      swap3\n      pop\n        /* \"#utility.yul\":6831:6832   */\n      dup3\n        /* \"#utility.yul\":6828:6829   */\n      dup3\n        /* \"#utility.yul\":6824:6833   */\n      mul\n        /* \"#utility.yul\":6853:6883   */\n      tag_164\n        /* \"#utility.yul\":6871:6882   */\n      dup2\n        /* \"#utility.yul\":6853:6883   */\n      tag_62\n      jump\t// in\n    tag_164:\n        /* \"#utility.yul\":6842:6883   */\n      swap2\n      pop\n        /* \"#utility.yul\":7032:7033   */\n      dup3\n        /* \"#utility.yul\":7023:7030   */\n      dup3\n        /* \"#utility.yul\":7019:7034   */\n      div\n        /* \"#utility.yul\":7016:7017   */\n      dup5\n        /* \"#utility.yul\":7013:7035   */\n      eq\n        /* \"#utility.yul\":6993:6994   */\n      dup4\n        /* \"#utility.yul\":6986:6995   */\n      iszero\n        /* \"#utility.yul\":6966:7049   */\n      or\n        /* \"#utility.yul\":6943:7082   */\n      tag_165\n      jumpi\n        /* \"#utility.yul\":7062:7080   */\n      tag_166\n      tag_81\n      jump\t// in\n    tag_166:\n        /* \"#utility.yul\":6943:7082   */\n    tag_165:\n        /* \"#utility.yul\":6727:7089   */\n      pop\n        /* \"#utility.yul\":6679:7089   */\n      swap3\n      swap2\n      pop\n      pop\n      jump\t// out\n\n    auxdata: 0xa26469706673582212209ad1119db3fb3c828972a148f53d7613f9d695b3f130c6e3e42614fea442b46864736f6c63430008120033\n}\n",
				"bytecode": {
					"linkReferences": {},
					"object": "608060405234801561001057600080fd5b5061084e806100206000396000f3fe6080604052600436106100555760003560e01c80630d8e6e2c1461005a5780637e0499361461008557806398d5fdca146100c2578063b6a324e0146100ed578063dc0d3dff146100f7578063f030662314610134575b600080fd5b34801561006657600080fd5b5061006f610171565b60405161007c919061044f565b60405180910390f35b34801561009157600080fd5b506100ac60048036038101906100a791906104cd565b610200565b6040516100b9919061044f565b60405180910390f35b3480156100ce57600080fd5b506100d7610218565b6040516100e4919061044f565b60405180910390f35b6100f56102c4565b005b34801561010357600080fd5b5061011e60048036038101906101199190610526565b6103c0565b60405161012b9190610562565b60405180910390f35b34801561014057600080fd5b5061015b60048036038101906101569190610526565b6103ff565b604051610168919061044f565b60405180910390f35b60008073694aa1769357215de4fac081bf1f309adc32530690508073ffffffffffffffffffffffffffffffffffffffff166354fd4d506040518163ffffffff1660e01b8152600401602060405180830381865afa1580156101d6573d6000803e3d6000fd5b505050506040513d601f19601f820116820180604052508101906101fa9190610592565b91505090565b60016020528060005260406000206000915090505481565b60008073694aa1769357215de4fac081bf1f309adc325306905060008173ffffffffffffffffffffffffffffffffffffffff1663feaf968c6040518163ffffffff1660e01b815260040160a060405180830381865afa15801561027f573d6000803e3d6000fd5b505050506040513d601f19601f820116820180604052508101906102a39190610637565b505050915050670de0b6b3a7640000816102bd91906106e1565b9250505090565b670de0b6b3a76400006102d6346103ff565b1015610317576040517f08c379a000000000000000000000000000000000000000000000000000000000815260040161030e906107b6565b60405180910390fd5b6000339080600181540180825580915050600190039060005260206000200160009091909190916101000a81548173ffffffffffffffffffffffffffffffffffffffff021916908373ffffffffffffffffffffffffffffffffffffffff16021790555034600160003373ffffffffffffffffffffffffffffffffffffffff1673ffffffffffffffffffffffffffffffffffffffff16815260200190815260200160002081905550565b600081815481106103d057600080fd5b906000526020600020016000915054906101000a900473ffffffffffffffffffffffffffffffffffffffff1681565b60008061040a610218565b905060006402540be400828561042091906107d6565b61042a91906107d6565b90508092505050919050565b6000819050919050565b61044981610436565b82525050565b60006020820190506104646000830184610440565b92915050565b600080fd5b600073ffffffffffffffffffffffffffffffffffffffff82169050919050565b600061049a8261046f565b9050919050565b6104aa8161048f565b81146104b557600080fd5b50565b6000813590506104c7816104a1565b92915050565b6000602082840312156104e3576104e261046a565b5b60006104f1848285016104b8565b91505092915050565b61050381610436565b811461050e57600080fd5b50565b600081359050610520816104fa565b92915050565b60006020828403121561053c5761053b61046a565b5b600061054a84828501610511565b91505092915050565b61055c8161048f565b82525050565b60006020820190506105776000830184610553565b92915050565b60008151905061058c816104fa565b92915050565b6000602082840312156105a8576105a761046a565b5b60006105b68482850161057d565b91505092915050565b600069ffffffffffffffffffff82169050919050565b6105de816105bf565b81146105e957600080fd5b50565b6000815190506105fb816105d5565b92915050565b6000819050919050565b61061481610601565b811461061f57600080fd5b50565b6000815190506106318161060b565b92915050565b600080600080600060a086880312156106535761065261046a565b5b6000610661888289016105ec565b955050602061067288828901610622565b94505060406106838882890161057d565b93505060606106948882890161057d565b92505060806106a5888289016105ec565b9150509295509295909350565b7f4e487b7100000000000000000000000000000000000000000000000000000000600052601160045260246000fd5b60006106ec82610601565b91506106f783610601565b925082820261070581610601565b91507f8000000000000000000000000000000000000000000000000000000000000000841460008412161561073d5761073c6106b2565b5b8282058414831517610752576107516106b2565b5b5092915050565b600082825260208201905092915050565b7f4e6f7420656e6f75676800000000000000000000000000000000000000000000600082015250565b60006107a0600a83610759565b91506107ab8261076a565b602082019050919050565b600060208201905081810360008301526107cf81610793565b9050919050565b60006107e182610436565b91506107ec83610436565b92508282026107fa81610436565b91508282048414831517610811576108106106b2565b5b509291505056fea26469706673582212209ad1119db3fb3c828972a148f53d7613f9d695b3f130c6e3e42614fea442b46864736f6c63430008120033",
					"opcodes": "PUSH1 0x80 PUSH1 0x40 MSTORE CALLVALUE DUP1 ISZERO PUSH2 0x10 JUMPI PUSH1 0x0 DUP1 REVERT JUMPDEST POP PUSH2 0x84E DUP1 PUSH2 0x20 PUSH1 0x0 CODECOPY PUSH1 0x0 RETURN INVALID PUSH1 0x80 PUSH1 0x40 MSTORE PUSH1 0x4 CALLDATASIZE LT PUSH2 0x55 JUMPI PUSH1 0x0 CALLDATALOAD PUSH1 0xE0 SHR DUP1 PUSH4 0xD8E6E2C EQ PUSH2 0x5A JUMPI DUP1 PUSH4 0x7E049936 EQ PUSH2 0x85 JUMPI DUP1 PUSH4 0x98D5FDCA EQ PUSH2 0xC2 JUMPI DUP1 PUSH4 0xB6A324E0 EQ PUSH2 0xED JUMPI DUP1 PUSH4 0xDC0D3DFF EQ PUSH2 0xF7 JUMPI DUP1 PUSH4 0xF0306623 EQ PUSH2 0x134 JUMPI JUMPDEST PUSH1 0x0 DUP1 REVERT JUMPDEST CALLVALUE DUP1 ISZERO PUSH2 0x66 JUMPI PUSH1 0x0 DUP1 REVERT JUMPDEST POP PUSH2 0x6F PUSH2 0x171 JUMP JUMPDEST PUSH1 0x40 MLOAD PUSH2 0x7C SWAP2 SWAP1 PUSH2 0x44F JUMP JUMPDEST PUSH1 0x40 MLOAD DUP1 SWAP2 SUB SWAP1 RETURN JUMPDEST CALLVALUE DUP1 ISZERO PUSH2 0x91 JUMPI PUSH1 0x0 DUP1 REVERT JUMPDEST POP PUSH2 0xAC PUSH1 0x4 DUP1 CALLDATASIZE SUB DUP2 ADD SWAP1 PUSH2 0xA7 SWAP2 SWAP1 PUSH2 0x4CD JUMP JUMPDEST PUSH2 0x200 JUMP JUMPDEST PUSH1 0x40 MLOAD PUSH2 0xB9 SWAP2 SWAP1 PUSH2 0x44F JUMP JUMPDEST PUSH1 0x40 MLOAD DUP1 SWAP2 SUB SWAP1 RETURN JUMPDEST CALLVALUE DUP1 ISZERO PUSH2 0xCE JUMPI PUSH1 0x0 DUP1 REVERT JUMPDEST POP PUSH2 0xD7 PUSH2 0x218 JUMP JUMPDEST PUSH1 0x40 MLOAD PUSH2 0xE4 SWAP2 SWAP1 PUSH2 0x44F JUMP JUMPDEST PUSH1 0x40 MLOAD DUP1 SWAP2 SUB SWAP1 RETURN JUMPDEST PUSH2 0xF5 PUSH2 0x2C4 JUMP JUMPDEST STOP JUMPDEST CALLVALUE DUP1 ISZERO PUSH2 0x103 JUMPI PUSH1 0x0 DUP1 REVERT JUMPDEST POP PUSH2 0x11E PUSH1 0x4 DUP1 CALLDATASIZE SUB DUP2 ADD SWAP1 PUSH2 0x119 SWAP2 SWAP1 PUSH2 0x526 JUMP JUMPDEST PUSH2 0x3C0 JUMP JUMPDEST PUSH1 0x40 MLOAD PUSH2 0x12B SWAP2 SWAP1 PUSH2 0x562 JUMP JUMPDEST PUSH1 0x40 MLOAD DUP1 SWAP2 SUB SWAP1 RETURN JUMPDEST CALLVALUE DUP1 ISZERO PUSH2 0x140 JUMPI PUSH1 0x0 DUP1 REVERT JUMPDEST POP PUSH2 0x15B PUSH1 0x4 DUP1 CALLDATASIZE SUB DUP2 ADD SWAP1 PUSH2 0x156 SWAP2 SWAP1 PUSH2 0x526 JUMP JUMPDEST PUSH2 0x3FF JUMP JUMPDEST PUSH1 0x40 MLOAD PUSH2 0x168 SWAP2 SWAP1 PUSH2 0x44F JUMP JUMPDEST PUSH1 0x40 MLOAD DUP1 SWAP2 SUB SWAP1 RETURN JUMPDEST PUSH1 0x0 DUP1 PUSH20 0x694AA1769357215DE4FAC081BF1F309ADC325306 SWAP1 POP DUP1 PUSH20 0xFFFFFFFFFFFFFFFFFFFFFFFFFFFFFFFFFFFFFFFF AND PUSH4 0x54FD4D50 PUSH1 0x40 MLOAD DUP2 PUSH4 0xFFFFFFFF AND PUSH1 0xE0 SHL DUP2 MSTORE PUSH1 0x4 ADD PUSH1 0x20 PUSH1 0x40 MLOAD DUP1 DUP4 SUB DUP2 DUP7 GAS STATICCALL ISZERO DUP1 ISZERO PUSH2 0x1D6 JUMPI RETURNDATASIZE PUSH1 0x0 DUP1 RETURNDATACOPY RETURNDATASIZE PUSH1 0x0 REVERT JUMPDEST POP POP POP POP PUSH1 0x40 MLOAD RETURNDATASIZE PUSH1 0x1F NOT PUSH1 0x1F DUP3 ADD AND DUP3 ADD DUP1 PUSH1 0x40 MSTORE POP DUP2 ADD SWAP1 PUSH2 0x1FA SWAP2 SWAP1 PUSH2 0x592 JUMP JUMPDEST SWAP2 POP POP SWAP1 JUMP JUMPDEST PUSH1 0x1 PUSH1 0x20 MSTORE DUP1 PUSH1 0x0 MSTORE PUSH1 0x40 PUSH1 0x0 KECCAK256 PUSH1 0x0 SWAP2 POP SWAP1 POP SLOAD DUP2 JUMP JUMPDEST PUSH1 0x0 DUP1 PUSH20 0x694AA1769357215DE4FAC081BF1F309ADC325306 SWAP1 POP PUSH1 0x0 DUP2 PUSH20 0xFFFFFFFFFFFFFFFFFFFFFFFFFFFFFFFFFFFFFFFF AND PUSH4 0xFEAF968C PUSH1 0x40 MLOAD DUP2 PUSH4 0xFFFFFFFF AND PUSH1 0xE0 SHL DUP2 MSTORE PUSH1 0x4 ADD PUSH1 0xA0 PUSH1 0x40 MLOAD DUP1 DUP4 SUB DUP2 DUP7 GAS STATICCALL ISZERO DUP1 ISZERO PUSH2 0x27F JUMPI RETURNDATASIZE PUSH1 0x0 DUP1 RETURNDATACOPY RETURNDATASIZE PUSH1 0x0 REVERT JUMPDEST POP POP POP POP PUSH1 0x40 MLOAD RETURNDATASIZE PUSH1 0x1F NOT PUSH1 0x1F DUP3 ADD AND DUP3 ADD DUP1 PUSH1 0x40 MSTORE POP DUP2 ADD SWAP1 PUSH2 0x2A3 SWAP2 SWAP1 PUSH2 0x637 JUMP JUMPDEST POP POP POP SWAP2 POP POP PUSH8 0xDE0B6B3A7640000 DUP2 PUSH2 0x2BD SWAP2 SWAP1 PUSH2 0x6E1 JUMP JUMPDEST SWAP3 POP POP POP SWAP1 JUMP JUMPDEST PUSH8 0xDE0B6B3A7640000 PUSH2 0x2D6 CALLVALUE PUSH2 0x3FF JUMP JUMPDEST LT ISZERO PUSH2 0x317 JUMPI PUSH1 0x40 MLOAD PUSH32 0x8C379A000000000000000000000000000000000000000000000000000000000 DUP2 MSTORE PUSH1 0x4 ADD PUSH2 0x30E SWAP1 PUSH2 0x7B6 JUMP JUMPDEST PUSH1 0x40 MLOAD DUP1 SWAP2 SUB SWAP1 REVERT JUMPDEST PUSH1 0x0 CALLER SWAP1 DUP1 PUSH1 0x1 DUP2 SLOAD ADD DUP1 DUP3 SSTORE DUP1 SWAP2 POP POP PUSH1 0x1 SWAP1 SUB SWAP1 PUSH1 0x0 MSTORE PUSH1 0x20 PUSH1 0x0 KECCAK256 ADD PUSH1 0x0 SWAP1 SWAP2 SWAP1 SWAP2 SWAP1 SWAP2 PUSH2 0x100 EXP DUP2 SLOAD DUP2 PUSH20 0xFFFFFFFFFFFFFFFFFFFFFFFFFFFFFFFFFFFFFFFF MUL NOT AND SWAP1 DUP4 PUSH20 0xFFFFFFFFFFFFFFFFFFFFFFFFFFFFFFFFFFFFFFFF AND MUL OR SWAP1 SSTORE POP CALLVALUE PUSH1 0x1 PUSH1 0x0 CALLER PUSH20 0xFFFFFFFFFFFFFFFFFFFFFFFFFFFFFFFFFFFFFFFF AND PUSH20 0xFFFFFFFFFFFFFFFFFFFFFFFFFFFFFFFFFFFFFFFF AND DUP2 MSTORE PUSH1 0x20 ADD SWAP1 DUP2 MSTORE PUSH1 0x20 ADD PUSH1 0x0 KECCAK256 DUP2 SWAP1 SSTORE POP JUMP JUMPDEST PUSH1 0x0 DUP2 DUP2 SLOAD DUP2 LT PUSH2 0x3D0 JUMPI PUSH1 0x0 DUP1 REVERT JUMPDEST SWAP1 PUSH1 0x0 MSTORE PUSH1 0x20 PUSH1 0x0 KECCAK256 ADD PUSH1 0x0 SWAP2 POP SLOAD SWAP1 PUSH2 0x100 EXP SWAP1 DIV PUSH20 0xFFFFFFFFFFFFFFFFFFFFFFFFFFFFFFFFFFFFFFFF AND DUP2 JUMP JUMPDEST PUSH1 0x0 DUP1 PUSH2 0x40A PUSH2 0x218 JUMP JUMPDEST SWAP1 POP PUSH1 0x0 PUSH5 0x2540BE400 DUP3 DUP6 PUSH2 0x420 SWAP2 SWAP1 PUSH2 0x7D6 JUMP JUMPDEST PUSH2 0x42A SWAP2 SWAP1 PUSH2 0x7D6 JUMP JUMPDEST SWAP1 POP DUP1 SWAP3 POP POP POP SWAP2 SWAP1 POP JUMP JUMPDEST PUSH1 0x0 DUP2 SWAP1 POP SWAP2 SWAP1 POP JUMP JUMPDEST PUSH2 0x449 DUP2 PUSH2 0x436 JUMP JUMPDEST DUP3 MSTORE POP POP JUMP JUMPDEST PUSH1 0x0 PUSH1 0x20 DUP3 ADD SWAP1 POP PUSH2 0x464 PUSH1 0x0 DUP4 ADD DUP5 PUSH2 0x440 JUMP JUMPDEST SWAP3 SWAP2 POP POP JUMP JUMPDEST PUSH1 0x0 DUP1 REVERT JUMPDEST PUSH1 0x0 PUSH20 0xFFFFFFFFFFFFFFFFFFFFFFFFFFFFFFFFFFFFFFFF DUP3 AND SWAP1 POP SWAP2 SWAP1 POP JUMP JUMPDEST PUSH1 0x0 PUSH2 0x49A DUP3 PUSH2 0x46F JUMP JUMPDEST SWAP1 POP SWAP2 SWAP1 POP JUMP JUMPDEST PUSH2 0x4AA DUP2 PUSH2 0x48F JUMP JUMPDEST DUP2 EQ PUSH2 0x4B5 JUMPI PUSH1 0x0 DUP1 REVERT JUMPDEST POP JUMP JUMPDEST PUSH1 0x0 DUP2 CALLDATALOAD SWAP1 POP PUSH2 0x4C7 DUP2 PUSH2 0x4A1 JUMP JUMPDEST SWAP3 SWAP2 POP POP JUMP JUMPDEST PUSH1 0x0 PUSH1 0x20 DUP3 DUP5 SUB SLT ISZERO PUSH2 0x4E3 JUMPI PUSH2 0x4E2 PUSH2 0x46A JUMP JUMPDEST JUMPDEST PUSH1 0x0 PUSH2 0x4F1 DUP5 DUP3 DUP6 ADD PUSH2 0x4B8 JUMP JUMPDEST SWAP2 POP POP SWAP3 SWAP2 POP POP JUMP JUMPDEST PUSH2 0x503 DUP2 PUSH2 0x436 JUMP JUMPDEST DUP2 EQ PUSH2 0x50E JUMPI PUSH1 0x0 DUP1 REVERT JUMPDEST POP JUMP JUMPDEST PUSH1 0x0 DUP2 CALLDATALOAD SWAP1 POP PUSH2 0x520 DUP2 PUSH2 0x4FA JUMP JUMPDEST SWAP3 SWAP2 POP POP JUMP JUMPDEST PUSH1 0x0 PUSH1 0x20 DUP3 DUP5 SUB SLT ISZERO PUSH2 0x53C JUMPI PUSH2 0x53B PUSH2 0x46A JUMP JUMPDEST JUMPDEST PUSH1 0x0 PUSH2 0x54A DUP5 DUP3 DUP6 ADD PUSH2 0x511 JUMP JUMPDEST SWAP2 POP POP SWAP3 SWAP2 POP POP JUMP JUMPDEST PUSH2 0x55C DUP2 PUSH2 0x48F JUMP JUMPDEST DUP3 MSTORE POP POP JUMP JUMPDEST PUSH1 0x0 PUSH1 0x20 DUP3 ADD SWAP1 POP PUSH2 0x577 PUSH1 0x0 DUP4 ADD DUP5 PUSH2 0x553 JUMP JUMPDEST SWAP3 SWAP2 POP POP JUMP JUMPDEST PUSH1 0x0 DUP2 MLOAD SWAP1 POP PUSH2 0x58C DUP2 PUSH2 0x4FA JUMP JUMPDEST SWAP3 SWAP2 POP POP JUMP JUMPDEST PUSH1 0x0 PUSH1 0x20 DUP3 DUP5 SUB SLT ISZERO PUSH2 0x5A8 JUMPI PUSH2 0x5A7 PUSH2 0x46A JUMP JUMPDEST JUMPDEST PUSH1 0x0 PUSH2 0x5B6 DUP5 DUP3 DUP6 ADD PUSH2 0x57D JUMP JUMPDEST SWAP2 POP POP SWAP3 SWAP2 POP POP JUMP JUMPDEST PUSH1 0x0 PUSH10 0xFFFFFFFFFFFFFFFFFFFF DUP3 AND SWAP1 POP SWAP2 SWAP1 POP JUMP JUMPDEST PUSH2 0x5DE DUP2 PUSH2 0x5BF JUMP JUMPDEST DUP2 EQ PUSH2 0x5E9 JUMPI PUSH1 0x0 DUP1 REVERT JUMPDEST POP JUMP JUMPDEST PUSH1 0x0 DUP2 MLOAD SWAP1 POP PUSH2 0x5FB DUP2 PUSH2 0x5D5 JUMP JUMPDEST SWAP3 SWAP2 POP POP JUMP JUMPDEST PUSH1 0x0 DUP2 SWAP1 POP SWAP2 SWAP1 POP JUMP JUMPDEST PUSH2 0x614 DUP2 PUSH2 0x601 JUMP JUMPDEST DUP2 EQ PUSH2 0x61F JUMPI PUSH1 0x0 DUP1 REVERT JUMPDEST POP JUMP JUMPDEST PUSH1 0x0 DUP2 MLOAD SWAP1 POP PUSH2 0x631 DUP2 PUSH2 0x60B JUMP JUMPDEST SWAP3 SWAP2 POP POP JUMP JUMPDEST PUSH1 0x0 DUP1 PUSH1 0x0 DUP1 PUSH1 0x0 PUSH1 0xA0 DUP7 DUP9 SUB SLT ISZERO PUSH2 0x653 JUMPI PUSH2 0x652 PUSH2 0x46A JUMP JUMPDEST JUMPDEST PUSH1 0x0 PUSH2 0x661 DUP9 DUP3 DUP10 ADD PUSH2 0x5EC JUMP JUMPDEST SWAP6 POP POP PUSH1 0x20 PUSH2 0x672 DUP9 DUP3 DUP10 ADD PUSH2 0x622 JUMP JUMPDEST SWAP5 POP POP PUSH1 0x40 PUSH2 0x683 DUP9 DUP3 DUP10 ADD PUSH2 0x57D JUMP JUMPDEST SWAP4 POP POP PUSH1 0x60 PUSH2 0x694 DUP9 DUP3 DUP10 ADD PUSH2 0x57D JUMP JUMPDEST SWAP3 POP POP PUSH1 0x80 PUSH2 0x6A5 DUP9 DUP3 DUP10 ADD PUSH2 0x5EC JUMP JUMPDEST SWAP2 POP POP SWAP3 SWAP6 POP SWAP3 SWAP6 SWAP1 SWAP4 POP JUMP JUMPDEST PUSH32 0x4E487B7100000000000000000000000000000000000000000000000000000000 PUSH1 0x0 MSTORE PUSH1 0x11 PUSH1 0x4 MSTORE PUSH1 0x24 PUSH1 0x0 REVERT JUMPDEST PUSH1 0x0 PUSH2 0x6EC DUP3 PUSH2 0x601 JUMP JUMPDEST SWAP2 POP PUSH2 0x6F7 DUP4 PUSH2 0x601 JUMP JUMPDEST SWAP3 POP DUP3 DUP3 MUL PUSH2 0x705 DUP2 PUSH2 0x601 JUMP JUMPDEST SWAP2 POP PUSH32 0x8000000000000000000000000000000000000000000000000000000000000000 DUP5 EQ PUSH1 0x0 DUP5 SLT AND ISZERO PUSH2 0x73D JUMPI PUSH2 0x73C PUSH2 0x6B2 JUMP JUMPDEST JUMPDEST DUP3 DUP3 SDIV DUP5 EQ DUP4 ISZERO OR PUSH2 0x752 JUMPI PUSH2 0x751 PUSH2 0x6B2 JUMP JUMPDEST JUMPDEST POP SWAP3 SWAP2 POP POP JUMP JUMPDEST PUSH1 0x0 DUP3 DUP3 MSTORE PUSH1 0x20 DUP3 ADD SWAP1 POP SWAP3 SWAP2 POP POP JUMP JUMPDEST PUSH32 0x4E6F7420656E6F75676800000000000000000000000000000000000000000000 PUSH1 0x0 DUP3 ADD MSTORE POP JUMP JUMPDEST PUSH1 0x0 PUSH2 0x7A0 PUSH1 0xA DUP4 PUSH2 0x759 JUMP JUMPDEST SWAP2 POP PUSH2 0x7AB DUP3 PUSH2 0x76A JUMP JUMPDEST PUSH1 0x20 DUP3 ADD SWAP1 POP SWAP2 SWAP1 POP JUMP JUMPDEST PUSH1 0x0 PUSH1 0x20 DUP3 ADD SWAP1 POP DUP2 DUP2 SUB PUSH1 0x0 DUP4 ADD MSTORE PUSH2 0x7CF DUP2 PUSH2 0x793 JUMP JUMPDEST SWAP1 POP SWAP2 SWAP1 POP JUMP JUMPDEST PUSH1 0x0 PUSH2 0x7E1 DUP3 PUSH2 0x436 JUMP JUMPDEST SWAP2 POP PUSH2 0x7EC DUP4 PUSH2 0x436 JUMP JUMPDEST SWAP3 POP DUP3 DUP3 MUL PUSH2 0x7FA DUP2 PUSH2 0x436 JUMP JUMPDEST SWAP2 POP DUP3 DUP3 DIV DUP5 EQ DUP4 ISZERO OR PUSH2 0x811 JUMPI PUSH2 0x810 PUSH2 0x6B2 JUMP JUMPDEST JUMPDEST POP SWAP3 SWAP2 POP POP JUMP INVALID LOG2 PUSH5 0x6970667358 0x22 SLT KECCAK256 SWAP11 0xD1 GT SWAP14 0xB3 0xFB EXTCODECOPY DUP3 DUP10 PUSH19 0xA148F53D7613F9D695B3F130C6E3E42614FEA4 TIMESTAMP 0xB4 PUSH9 0x64736F6C6343000812 STOP CALLER "
				},
				"gasEstimates": {
					"creation": {
						"codeDepositCost": "425200",
						"executionCost": "461",
						"totalCost": "425661"
					},
					"external": {
						"addressToFunders(address)": "2814",
						"fundMe()": "infinite",
						"funders(uint256)": "5022",
						"getPrice()": "infinite",
						"getVersion()": "infinite",
						"priceConverter(uint256)": "infinite"
					}
				},
				"methodIdentifiers": {
					"addressToFunders(address)": "7e049936",
					"fundMe()": "b6a324e0",
					"funders(uint256)": "dc0d3dff",
					"getPrice()": "98d5fdca",
					"getVersion()": "0d8e6e2c",
					"priceConverter(uint256)": "f0306623"
				}
			},
			"storageLayout": {
				"storage": [
					{
						"astId": 51,
						"contract": "contracts/Test.sol:Test",
						"label": "funders",
						"offset": 0,
						"slot": "0",
						"type": "t_array(t_address)dyn_storage"
					},
					{
						"astId": 55,
						"contract": "contracts/Test.sol:Test",
						"label": "addressToFunders",
						"offset": 0,
						"slot": "1",
						"type": "t_mapping(t_address,t_uint256)"
					}
				],
				"types": {
					"t_address": {
						"encoding": "inplace",
						"label": "address",
						"numberOfBytes": "20"
					},
					"t_array(t_address)dyn_storage": {
						"base": "t_address",
						"encoding": "dynamic_array",
						"label": "address[]",
						"numberOfBytes": "32"
					},
					"t_mapping(t_address,t_uint256)": {
						"encoding": "mapping",
						"key": "t_address",
						"label": "mapping(address => uint256)",
						"numberOfBytes": "32",
						"value": "t_uint256"
					},
					"t_uint256": {
						"encoding": "inplace",
						"label": "uint256",
						"numberOfBytes": "32"
					}
				}
			},
			"userdoc": {
				"kind": "user",
				"methods": {},
				"version": 1
			}
		}
	}
}